{
  "contractName": "Event",
  "abi": [
    {
      "inputs": [],
      "payable": false,
      "stateMutability": "nonpayable",
      "type": "constructor"
    },
    {
      "constant": true,
      "inputs": [],
      "name": "approveId",
      "outputs": [
        {
          "internalType": "uint256",
          "name": "",
          "type": "uint256"
        }
      ],
      "payable": false,
      "stateMutability": "view",
      "type": "function"
    },
    {
      "constant": true,
      "inputs": [
        {
          "internalType": "address",
          "name": "",
          "type": "address"
        }
      ],
      "name": "approves",
      "outputs": [
        {
          "internalType": "bool",
          "name": "",
          "type": "bool"
        }
      ],
      "payable": false,
      "stateMutability": "view",
      "type": "function"
    },
    {
      "constant": true,
      "inputs": [],
      "name": "eventContractOwner",
      "outputs": [
        {
          "internalType": "address",
          "name": "",
          "type": "address"
        }
      ],
      "payable": false,
      "stateMutability": "view",
      "type": "function"
    },
    {
      "constant": true,
      "inputs": [],
      "name": "eventId",
      "outputs": [
        {
          "internalType": "uint256",
          "name": "",
          "type": "uint256"
        }
      ],
      "payable": false,
      "stateMutability": "view",
      "type": "function"
    },
    {
      "constant": true,
      "inputs": [
        {
          "internalType": "uint256",
          "name": "",
          "type": "uint256"
        }
      ],
      "name": "eventOwner",
      "outputs": [
        {
          "internalType": "address",
          "name": "",
          "type": "address"
        }
      ],
      "payable": false,
      "stateMutability": "view",
      "type": "function"
    },
    {
      "constant": true,
      "inputs": [
        {
          "internalType": "uint256",
          "name": "",
          "type": "uint256"
        }
      ],
      "name": "events",
      "outputs": [
        {
          "internalType": "address",
          "name": "owner",
          "type": "address"
        },
        {
          "internalType": "string",
          "name": "detail",
          "type": "string"
        }
      ],
      "payable": false,
      "stateMutability": "view",
      "type": "function"
    },
    {
      "constant": true,
      "inputs": [],
      "name": "getEventContractOwner",
      "outputs": [
        {
          "internalType": "address",
          "name": "",
          "type": "address"
        }
      ],
      "payable": false,
      "stateMutability": "view",
      "type": "function"
    },
    {
      "constant": false,
      "inputs": [
        {
          "internalType": "address",
          "name": "_approve",
          "type": "address"
        }
      ],
      "name": "addApproval",
      "outputs": [],
      "payable": false,
      "stateMutability": "nonpayable",
      "type": "function"
    },
    {
      "constant": true,
      "inputs": [
        {
          "internalType": "address",
          "name": "_approve",
          "type": "address"
        }
      ],
      "name": "isApproval",
      "outputs": [
        {
          "internalType": "bool",
          "name": "",
          "type": "bool"
        }
      ],
      "payable": false,
      "stateMutability": "view",
      "type": "function"
    },
    {
      "constant": false,
      "inputs": [
        {
          "internalType": "address",
          "name": "_approve",
          "type": "address"
        }
      ],
      "name": "removeApproval",
      "outputs": [],
      "payable": false,
      "stateMutability": "nonpayable",
      "type": "function"
    },
    {
      "constant": true,
      "inputs": [
        {
          "internalType": "uint256",
          "name": "_eventId",
          "type": "uint256"
        }
      ],
      "name": "getEventOwner",
      "outputs": [
        {
          "internalType": "address",
          "name": "",
          "type": "address"
        }
      ],
      "payable": false,
      "stateMutability": "view",
      "type": "function"
    },
    {
      "constant": true,
      "inputs": [],
      "name": "getEventId",
      "outputs": [
        {
          "internalType": "uint256",
          "name": "",
          "type": "uint256"
        }
      ],
      "payable": false,
      "stateMutability": "view",
      "type": "function"
    },
    {
      "constant": true,
      "inputs": [
        {
          "internalType": "uint256",
          "name": "_eventId",
          "type": "uint256"
        }
      ],
      "name": "getEvent",
      "outputs": [
        {
          "internalType": "string",
          "name": "",
          "type": "string"
        }
      ],
      "payable": false,
      "stateMutability": "view",
      "type": "function"
    },
    {
      "constant": true,
      "inputs": [],
      "name": "getApproveId",
      "outputs": [
        {
          "internalType": "uint256",
          "name": "",
          "type": "uint256"
        }
      ],
      "payable": false,
      "stateMutability": "view",
      "type": "function"
    },
    {
      "constant": false,
      "inputs": [
        {
          "internalType": "address",
          "name": "_owner",
          "type": "address"
        },
        {
          "internalType": "string",
          "name": "_detail",
          "type": "string"
        }
      ],
      "name": "createEvent",
      "outputs": [],
      "payable": false,
      "stateMutability": "nonpayable",
      "type": "function"
    },
    {
      "constant": true,
      "inputs": [
        {
          "internalType": "address",
          "name": "_owner",
          "type": "address"
        }
      ],
      "name": "eventOwnerBalanceOf",
      "outputs": [
        {
          "internalType": "uint256",
          "name": "",
          "type": "uint256"
        }
      ],
      "payable": false,
      "stateMutability": "view",
      "type": "function"
    }
  ],
  "bytecode": "0x60806040526000600255600060035534801561001a57600080fd5b5033600460006101000a81548173ffffffffffffffffffffffffffffffffffffffff021916908373ffffffffffffffffffffffffffffffffffffffff160217905550610f9e8061006b6000396000f3fe608060405234801561001057600080fd5b50600436106101005760003560e01c80637cab5e8c11610097578063cb44211e11610066578063cb44211e1461057b578063d37f4acf146105bf578063f39346f31461061b578063fe210f691461067357610100565b80637cab5e8c146104355780638a62462e14610479578063b4d59d27146104c3578063c13cf59a1461053157610100565b8063331b2763116100d3578063331b2763146102395780634a17bbde14610295578063652d4725146102b35780636d1884e01461038e57610100565b8063089cdd0c146101055780630b7914301461012357806319717d54146101fd578063323c635a1461021b575b600080fd5b61010d6106e1565b6040518082815260200191505060405180910390f35b61014f6004803603602081101561013957600080fd5b81019080803590602001909291905050506106e7565b604051808373ffffffffffffffffffffffffffffffffffffffff1673ffffffffffffffffffffffffffffffffffffffff16815260200180602001828103825283818151815260200191508051906020019080838360005b838110156101c15780820151818401526020810190506101a6565b50505050905090810190601f1680156101ee5780820380516001836020036101000a031916815260200191505b50935050505060405180910390f35b6102056107c3565b6040518082815260200191505060405180910390f35b6102236107c9565b6040518082815260200191505060405180910390f35b61027b6004803603602081101561024f57600080fd5b81019080803573ffffffffffffffffffffffffffffffffffffffff1690602001909291905050506107d3565b604051808215151515815260200191505060405180910390f35b61029d610829565b6040518082815260200191505060405180910390f35b61038c600480360360408110156102c957600080fd5b81019080803573ffffffffffffffffffffffffffffffffffffffff1690602001909291908035906020019064010000000081111561030657600080fd5b82018360208201111561031857600080fd5b8035906020019184600183028401116401000000008311171561033a57600080fd5b91908080601f016020809104026020016040519081016040528093929190818152602001838380828437600081840152601f19601f820116905080830192505050505050509192919290505050610833565b005b6103ba600480360360208110156103a457600080fd5b8101908080359060200190929190505050610980565b6040518080602001828103825283818151815260200191508051906020019080838360005b838110156103fa5780820151818401526020810190506103df565b50505050905090810190601f1680156104275780820380516001836020036101000a031916815260200191505b509250505060405180910390f35b6104776004803603602081101561044b57600080fd5b81019080803573ffffffffffffffffffffffffffffffffffffffff169060200190929190505050610a37565b005b610481610b55565b604051808273ffffffffffffffffffffffffffffffffffffffff1673ffffffffffffffffffffffffffffffffffffffff16815260200191505060405180910390f35b6104ef600480360360208110156104d957600080fd5b8101908080359060200190929190505050610b7f565b604051808273ffffffffffffffffffffffffffffffffffffffff1673ffffffffffffffffffffffffffffffffffffffff16815260200191505060405180910390f35b610539610bb2565b604051808273ffffffffffffffffffffffffffffffffffffffff1673ffffffffffffffffffffffffffffffffffffffff16815260200191505060405180910390f35b6105bd6004803603602081101561059157600080fd5b81019080803573ffffffffffffffffffffffffffffffffffffffff169060200190929190505050610bd8565b005b610601600480360360208110156105d557600080fd5b81019080803573ffffffffffffffffffffffffffffffffffffffff169060200190929190505050610cfd565b604051808215151515815260200191505060405180910390f35b61065d6004803603602081101561063157600080fd5b81019080803573ffffffffffffffffffffffffffffffffffffffff169060200190929190505050610d1d565b6040518082815260200191505060405180910390f35b61069f6004803603602081101561068957600080fd5b8101908080359060200190929190505050610e14565b604051808273ffffffffffffffffffffffffffffffffffffffff1673ffffffffffffffffffffffffffffffffffffffff16815260200191505060405180910390f35b60025481565b60006020528060005260406000206000915090508060000160009054906101000a900473ffffffffffffffffffffffffffffffffffffffff1690806001018054600181600116156101000203166002900480601f0160208091040260200160405190810160405280929190818152602001828054600181600116156101000203166002900480156107b95780601f1061078e576101008083540402835291602001916107b9565b820191906000526020600020905b81548152906001019060200180831161079c57829003601f168201915b5050505050905082565b60035481565b6000600354905090565b6000600160008373ffffffffffffffffffffffffffffffffffffffff1673ffffffffffffffffffffffffffffffffffffffff16815260200190815260200160002060009054906101000a900460ff169050919050565b6000600254905090565b60405180604001604052808373ffffffffffffffffffffffffffffffffffffffff16815260200182815250600080600254815260200190815260200160002060008201518160000160006101000a81548173ffffffffffffffffffffffffffffffffffffffff021916908373ffffffffffffffffffffffffffffffffffffffff16021790555060208201518160010190805190602001906108d5929190610e9b565b509050508160056000600254815260200190815260200160002060006101000a81548173ffffffffffffffffffffffffffffffffffffffff021916908373ffffffffffffffffffffffffffffffffffffffff160217905550610974600660008473ffffffffffffffffffffffffffffffffffffffff1673ffffffffffffffffffffffffffffffffffffffff168152602001908152602001600020610e51565b61097c610e67565b5050565b60606000808381526020019081526020016000206001018054600181600116156101000203166002900480601f016020809104026020016040519081016040528092919081815260200182805460018160011615610100020316600290048015610a2b5780601f10610a0057610100808354040283529160200191610a2b565b820191906000526020600020905b815481529060010190602001808311610a0e57829003601f168201915b50505050509050919050565b3373ffffffffffffffffffffffffffffffffffffffff16600460009054906101000a900473ffffffffffffffffffffffffffffffffffffffff1673ffffffffffffffffffffffffffffffffffffffff1614610afa576040517f08c379a00000000000000000000000000000000000000000000000000000000081526004018080602001828103825260158152602001807f73656e646572206973206e6f742061206f776e6572000000000000000000000081525060200191505060405180910390fd5b6000600160008373ffffffffffffffffffffffffffffffffffffffff1673ffffffffffffffffffffffffffffffffffffffff16815260200190815260200160002060006101000a81548160ff02191690831515021790555050565b6000600460009054906101000a900473ffffffffffffffffffffffffffffffffffffffff16905090565b60056020528060005260406000206000915054906101000a900473ffffffffffffffffffffffffffffffffffffffff1681565b600460009054906101000a900473ffffffffffffffffffffffffffffffffffffffff1681565b3373ffffffffffffffffffffffffffffffffffffffff16600460009054906101000a900473ffffffffffffffffffffffffffffffffffffffff1673ffffffffffffffffffffffffffffffffffffffff1614610c9b576040517f08c379a00000000000000000000000000000000000000000000000000000000081526004018080602001828103825260158152602001807f73656e646572206973206e6f742061206f776e6572000000000000000000000081525060200191505060405180910390fd5b60018060008373ffffffffffffffffffffffffffffffffffffffff1673ffffffffffffffffffffffffffffffffffffffff16815260200190815260200160002060006101000a81548160ff021916908315150217905550610cfa610e7a565b50565b60016020528060005260406000206000915054906101000a900460ff1681565b60008073ffffffffffffffffffffffffffffffffffffffff16600460009054906101000a900473ffffffffffffffffffffffffffffffffffffffff1673ffffffffffffffffffffffffffffffffffffffff161415610dc6576040517f08c379a0000000000000000000000000000000000000000000000000000000008152600401808060200182810382526029815260200180610f416029913960400191505060405180910390fd5b610e0d600660008473ffffffffffffffffffffffffffffffffffffffff1673ffffffffffffffffffffffffffffffffffffffff168152602001908152602001600020610e8d565b9050919050565b60006005600083815260200190815260200160002060009054906101000a900473ffffffffffffffffffffffffffffffffffffffff169050919050565b6001816000016000828254019250508190555050565b6001600260008282540192505081905550565b6001600360008282540192505081905550565b600081600001549050919050565b828054600181600116156101000203166002900490600052602060002090601f016020900481019282601f10610edc57805160ff1916838001178555610f0a565b82800160010185558215610f0a579182015b82811115610f09578251825591602001919060010190610eee565b5b509050610f179190610f1b565b5090565b610f3d91905b80821115610f39576000816000905550600101610f21565b5090565b9056fe4576656e743a2062616c616e636520717565727920666f7220746865207a65726f2061646472657373a265627a7a723158201587e1244f62e0170d2ab531a7db99dd1b890ebaa29237f512a5499cebfa2ce964736f6c63430005100032",
  "source": "pragma solidity ^0.5.16;\r\nimport {Counters} from \"./ERC721Full.sol\";\r\n\r\n\r\n\r\ncontract Event {\r\n  using Counters for Counters.Counter;\r\n  mapping(uint => Event) public events;\r\n  mapping(address => bool) public approves;\r\n  // mapping(string => bool) _ticketExists;\r\n  uint256 public eventId = 0;\r\n  uint256 public approveId = 0;\r\n  address public eventContractOwner;\r\n  mapping(uint => address) public eventOwner;\r\n\r\n  mapping (address => Counters.Counter) private _ownedEventsCount;\r\n\r\n  constructor() public {\r\n    eventContractOwner = msg.sender;\r\n  }\r\n\r\n  struct Event {\r\n    address owner;\r\n    string detail;\r\n  }\r\n\r\n  modifier onlyOwner() {\r\n    require(eventContractOwner == msg.sender, 'sender is not a owner');\r\n    _;\r\n  }\r\n\r\n  modifier onlyApprove() {\r\n    require(approves[msg.sender] || eventContractOwner == msg.sender, 'sender is not approved');\r\n    _;\r\n  }\r\n\r\n  function getEventContractOwner() public view returns(address) {\r\n    return eventContractOwner;\r\n  }\r\n\r\n  function _incrementEvent() internal {\r\n    eventId += 1;\r\n  }\r\n\r\n  function _incrementApprove() internal {\r\n    approveId += 1;\r\n  }\r\n\r\n  function addApproval(address _approve) public onlyOwner {\r\n    approves[_approve] = true;\r\n    _incrementApprove();\r\n  }\r\n\r\n  function isApproval(address _approve) public view returns(bool) {\r\n    return approves[_approve];\r\n  }\r\n\r\n  function removeApproval(address _approve) public onlyOwner {\r\n    approves[_approve] = false;\r\n  }\r\n\r\n  function getEventOwner(uint _eventId) public view returns(address) {\r\n    return eventOwner[_eventId];\r\n  }\r\n\r\n  function getEventId() public view returns (uint256) {\r\n    return eventId;\r\n  }\r\n\r\n  function getEvent(uint _eventId) public view returns (string memory) {\r\n    return events[_eventId].detail;\r\n  }\r\n\r\n  function getApproveId() public view returns (uint256) {\r\n    return approveId;\r\n  }\r\n\r\n  function createEvent(address _owner, string memory _detail) public  {\r\n    events[eventId] = Event(_owner, _detail);\r\n    eventOwner[eventId] = _owner;\r\n    _ownedEventsCount[_owner].increment();\r\n    _incrementEvent();\r\n  }\r\n\r\n  function eventOwnerBalanceOf(address _owner) public view returns (uint256) {\r\n  require(eventContractOwner != address(0), \"Event: balance query for the zero address\");\r\n      return _ownedEventsCount[_owner].current();\r\n  }\r\n\r\n\r\n}",
  "sourcePath": "C:\\Users\\Tim-CH\\Desktop\\smart-ticket-app\\src\\contracts\\Event.sol",
  "compiler": {
    "name": "solc",
    "version": "0.5.16+commit.9c3226ce.Emscripten.clang"
  },
  "schemaVersion": "3.3.3",
  "updatedAt": "2021-01-03T16:37:55.873Z",
  "networkType": "ethereum",
  "devdoc": {
    "methods": {}
  },
  "userdoc": {
    "methods": {}
  }
}