{
  "contractName": "Ticket",
  "abi": [
    {
      "inputs": [],
      "payable": false,
      "stateMutability": "nonpayable",
      "type": "constructor"
    },
    {
      "anonymous": false,
      "inputs": [
        {
          "indexed": true,
          "internalType": "address",
          "name": "owner",
          "type": "address"
        },
        {
          "indexed": true,
          "internalType": "address",
          "name": "approved",
          "type": "address"
        },
        {
          "indexed": true,
          "internalType": "uint256",
          "name": "tokenId",
          "type": "uint256"
        }
      ],
      "name": "Approval",
      "type": "event"
    },
    {
      "anonymous": false,
      "inputs": [
        {
          "indexed": true,
          "internalType": "address",
          "name": "owner",
          "type": "address"
        },
        {
          "indexed": true,
          "internalType": "address",
          "name": "operator",
          "type": "address"
        },
        {
          "indexed": false,
          "internalType": "bool",
          "name": "approved",
          "type": "bool"
        }
      ],
      "name": "ApprovalForAll",
      "type": "event"
    },
    {
      "anonymous": false,
      "inputs": [
        {
          "indexed": true,
          "internalType": "address",
          "name": "from",
          "type": "address"
        },
        {
          "indexed": true,
          "internalType": "address",
          "name": "to",
          "type": "address"
        },
        {
          "indexed": true,
          "internalType": "uint256",
          "name": "tokenId",
          "type": "uint256"
        }
      ],
      "name": "Transfer",
      "type": "event"
    },
    {
      "constant": false,
      "inputs": [
        {
          "internalType": "address",
          "name": "_approve",
          "type": "address"
        }
      ],
      "name": "addApproval",
      "outputs": [],
      "payable": false,
      "stateMutability": "nonpayable",
      "type": "function"
    },
    {
      "constant": false,
      "inputs": [
        {
          "internalType": "address",
          "name": "to",
          "type": "address"
        },
        {
          "internalType": "uint256",
          "name": "tokenId",
          "type": "uint256"
        }
      ],
      "name": "approve",
      "outputs": [],
      "payable": false,
      "stateMutability": "nonpayable",
      "type": "function"
    },
    {
      "constant": true,
      "inputs": [],
      "name": "approveId",
      "outputs": [
        {
          "internalType": "uint256",
          "name": "",
          "type": "uint256"
        }
      ],
      "payable": false,
      "stateMutability": "view",
      "type": "function"
    },
    {
      "constant": true,
      "inputs": [
        {
          "internalType": "address",
          "name": "",
          "type": "address"
        }
      ],
      "name": "approves",
      "outputs": [
        {
          "internalType": "bool",
          "name": "",
          "type": "bool"
        }
      ],
      "payable": false,
      "stateMutability": "view",
      "type": "function"
    },
    {
      "constant": true,
      "inputs": [
        {
          "internalType": "address",
          "name": "owner",
          "type": "address"
        }
      ],
      "name": "balanceOf",
      "outputs": [
        {
          "internalType": "uint256",
          "name": "",
          "type": "uint256"
        }
      ],
      "payable": false,
      "stateMutability": "view",
      "type": "function"
    },
    {
      "constant": false,
      "inputs": [
        {
          "internalType": "address",
          "name": "_owner",
          "type": "address"
        },
        {
          "internalType": "string",
          "name": "_detail",
          "type": "string"
        }
      ],
      "name": "createEvent",
      "outputs": [],
      "payable": false,
      "stateMutability": "nonpayable",
      "type": "function"
    },
    {
      "constant": true,
      "inputs": [],
      "name": "eventContractOwner",
      "outputs": [
        {
          "internalType": "address",
          "name": "",
          "type": "address"
        }
      ],
      "payable": false,
      "stateMutability": "view",
      "type": "function"
    },
    {
      "constant": true,
      "inputs": [],
      "name": "eventId",
      "outputs": [
        {
          "internalType": "uint256",
          "name": "",
          "type": "uint256"
        }
      ],
      "payable": false,
      "stateMutability": "view",
      "type": "function"
    },
    {
      "constant": true,
      "inputs": [
        {
          "internalType": "uint256",
          "name": "",
          "type": "uint256"
        }
      ],
      "name": "eventOwner",
      "outputs": [
        {
          "internalType": "address",
          "name": "",
          "type": "address"
        }
      ],
      "payable": false,
      "stateMutability": "view",
      "type": "function"
    },
    {
      "constant": true,
      "inputs": [
        {
          "internalType": "address",
          "name": "_owner",
          "type": "address"
        }
      ],
      "name": "eventOwnerBalanceOf",
      "outputs": [
        {
          "internalType": "uint256",
          "name": "",
          "type": "uint256"
        }
      ],
      "payable": false,
      "stateMutability": "view",
      "type": "function"
    },
    {
      "constant": true,
      "inputs": [
        {
          "internalType": "uint256",
          "name": "",
          "type": "uint256"
        }
      ],
      "name": "events",
      "outputs": [
        {
          "internalType": "address",
          "name": "owner",
          "type": "address"
        },
        {
          "internalType": "string",
          "name": "detail",
          "type": "string"
        }
      ],
      "payable": false,
      "stateMutability": "view",
      "type": "function"
    },
    {
      "constant": true,
      "inputs": [],
      "name": "getApproveId",
      "outputs": [
        {
          "internalType": "uint256",
          "name": "",
          "type": "uint256"
        }
      ],
      "payable": false,
      "stateMutability": "view",
      "type": "function"
    },
    {
      "constant": true,
      "inputs": [
        {
          "internalType": "uint256",
          "name": "tokenId",
          "type": "uint256"
        }
      ],
      "name": "getApproved",
      "outputs": [
        {
          "internalType": "address",
          "name": "",
          "type": "address"
        }
      ],
      "payable": false,
      "stateMutability": "view",
      "type": "function"
    },
    {
      "constant": true,
      "inputs": [
        {
          "internalType": "uint256",
          "name": "_eventId",
          "type": "uint256"
        }
      ],
      "name": "getEvent",
      "outputs": [
        {
          "internalType": "string",
          "name": "",
          "type": "string"
        }
      ],
      "payable": false,
      "stateMutability": "view",
      "type": "function"
    },
    {
      "constant": true,
      "inputs": [],
      "name": "getEventContractOwner",
      "outputs": [
        {
          "internalType": "address",
          "name": "",
          "type": "address"
        }
      ],
      "payable": false,
      "stateMutability": "view",
      "type": "function"
    },
    {
      "constant": true,
      "inputs": [],
      "name": "getEventId",
      "outputs": [
        {
          "internalType": "uint256",
          "name": "",
          "type": "uint256"
        }
      ],
      "payable": false,
      "stateMutability": "view",
      "type": "function"
    },
    {
      "constant": true,
      "inputs": [
        {
          "internalType": "uint256",
          "name": "_eventId",
          "type": "uint256"
        }
      ],
      "name": "getEventOwner",
      "outputs": [
        {
          "internalType": "address",
          "name": "",
          "type": "address"
        }
      ],
      "payable": false,
      "stateMutability": "view",
      "type": "function"
    },
    {
      "constant": true,
      "inputs": [
        {
          "internalType": "address",
          "name": "_approve",
          "type": "address"
        }
      ],
      "name": "isApproval",
      "outputs": [
        {
          "internalType": "bool",
          "name": "",
          "type": "bool"
        }
      ],
      "payable": false,
      "stateMutability": "view",
      "type": "function"
    },
    {
      "constant": true,
      "inputs": [
        {
          "internalType": "address",
          "name": "owner",
          "type": "address"
        },
        {
          "internalType": "address",
          "name": "operator",
          "type": "address"
        }
      ],
      "name": "isApprovedForAll",
      "outputs": [
        {
          "internalType": "bool",
          "name": "",
          "type": "bool"
        }
      ],
      "payable": false,
      "stateMutability": "view",
      "type": "function"
    },
    {
      "constant": true,
      "inputs": [],
      "name": "name",
      "outputs": [
        {
          "internalType": "string",
          "name": "",
          "type": "string"
        }
      ],
      "payable": false,
      "stateMutability": "view",
      "type": "function"
    },
    {
      "constant": true,
      "inputs": [
        {
          "internalType": "uint256",
          "name": "tokenId",
          "type": "uint256"
        }
      ],
      "name": "ownerOf",
      "outputs": [
        {
          "internalType": "address",
          "name": "",
          "type": "address"
        }
      ],
      "payable": false,
      "stateMutability": "view",
      "type": "function"
    },
    {
      "constant": false,
      "inputs": [
        {
          "internalType": "address",
          "name": "_approve",
          "type": "address"
        }
      ],
      "name": "removeApproval",
      "outputs": [],
      "payable": false,
      "stateMutability": "nonpayable",
      "type": "function"
    },
    {
      "constant": false,
      "inputs": [
        {
          "internalType": "address",
          "name": "from",
          "type": "address"
        },
        {
          "internalType": "address",
          "name": "to",
          "type": "address"
        },
        {
          "internalType": "uint256",
          "name": "tokenId",
          "type": "uint256"
        }
      ],
      "name": "safeTransferFrom",
      "outputs": [],
      "payable": false,
      "stateMutability": "nonpayable",
      "type": "function"
    },
    {
      "constant": false,
      "inputs": [
        {
          "internalType": "address",
          "name": "from",
          "type": "address"
        },
        {
          "internalType": "address",
          "name": "to",
          "type": "address"
        },
        {
          "internalType": "uint256",
          "name": "tokenId",
          "type": "uint256"
        },
        {
          "internalType": "bytes",
          "name": "_data",
          "type": "bytes"
        }
      ],
      "name": "safeTransferFrom",
      "outputs": [],
      "payable": false,
      "stateMutability": "nonpayable",
      "type": "function"
    },
    {
      "constant": false,
      "inputs": [
        {
          "internalType": "address",
          "name": "to",
          "type": "address"
        },
        {
          "internalType": "bool",
          "name": "approved",
          "type": "bool"
        }
      ],
      "name": "setApprovalForAll",
      "outputs": [],
      "payable": false,
      "stateMutability": "nonpayable",
      "type": "function"
    },
    {
      "constant": true,
      "inputs": [
        {
          "internalType": "bytes4",
          "name": "interfaceId",
          "type": "bytes4"
        }
      ],
      "name": "supportsInterface",
      "outputs": [
        {
          "internalType": "bool",
          "name": "",
          "type": "bool"
        }
      ],
      "payable": false,
      "stateMutability": "view",
      "type": "function"
    },
    {
      "constant": true,
      "inputs": [],
      "name": "symbol",
      "outputs": [
        {
          "internalType": "string",
          "name": "",
          "type": "string"
        }
      ],
      "payable": false,
      "stateMutability": "view",
      "type": "function"
    },
    {
      "constant": true,
      "inputs": [],
      "name": "ticketContractOwner",
      "outputs": [
        {
          "internalType": "address",
          "name": "",
          "type": "address"
        }
      ],
      "payable": false,
      "stateMutability": "view",
      "type": "function"
    },
    {
      "constant": true,
      "inputs": [],
      "name": "ticketCount",
      "outputs": [
        {
          "internalType": "uint256",
          "name": "",
          "type": "uint256"
        }
      ],
      "payable": false,
      "stateMutability": "view",
      "type": "function"
    },
    {
      "constant": true,
      "inputs": [
        {
          "internalType": "uint256",
          "name": "",
          "type": "uint256"
        }
      ],
      "name": "tickets",
      "outputs": [
        {
          "internalType": "uint256",
          "name": "eventId",
          "type": "uint256"
        },
        {
          "internalType": "string",
          "name": "ticketDetail",
          "type": "string"
        },
        {
          "internalType": "uint256",
          "name": "ticketId",
          "type": "uint256"
        }
      ],
      "payable": false,
      "stateMutability": "view",
      "type": "function"
    },
    {
      "constant": true,
      "inputs": [
        {
          "internalType": "uint256",
          "name": "index",
          "type": "uint256"
        }
      ],
      "name": "tokenByIndex",
      "outputs": [
        {
          "internalType": "uint256",
          "name": "",
          "type": "uint256"
        }
      ],
      "payable": false,
      "stateMutability": "view",
      "type": "function"
    },
    {
      "constant": true,
      "inputs": [
        {
          "internalType": "address",
          "name": "owner",
          "type": "address"
        },
        {
          "internalType": "uint256",
          "name": "index",
          "type": "uint256"
        }
      ],
      "name": "tokenOfOwnerByIndex",
      "outputs": [
        {
          "internalType": "uint256",
          "name": "",
          "type": "uint256"
        }
      ],
      "payable": false,
      "stateMutability": "view",
      "type": "function"
    },
    {
      "constant": true,
      "inputs": [
        {
          "internalType": "uint256",
          "name": "tokenId",
          "type": "uint256"
        }
      ],
      "name": "tokenURI",
      "outputs": [
        {
          "internalType": "string",
          "name": "",
          "type": "string"
        }
      ],
      "payable": false,
      "stateMutability": "view",
      "type": "function"
    },
    {
      "constant": true,
      "inputs": [],
      "name": "totalSupply",
      "outputs": [
        {
          "internalType": "uint256",
          "name": "",
          "type": "uint256"
        }
      ],
      "payable": false,
      "stateMutability": "view",
      "type": "function"
    },
    {
      "constant": false,
      "inputs": [
        {
          "internalType": "address",
          "name": "from",
          "type": "address"
        },
        {
          "internalType": "address",
          "name": "to",
          "type": "address"
        },
        {
          "internalType": "uint256",
          "name": "tokenId",
          "type": "uint256"
        }
      ],
      "name": "transferFrom",
      "outputs": [],
      "payable": false,
      "stateMutability": "nonpayable",
      "type": "function"
    },
    {
      "constant": false,
      "inputs": [
        {
          "internalType": "string[]",
          "name": "_tickets",
          "type": "string[]"
        }
      ],
      "name": "mint",
      "outputs": [],
      "payable": false,
      "stateMutability": "nonpayable",
      "type": "function"
    },
    {
      "constant": false,
      "inputs": [
        {
          "internalType": "string[]",
          "name": "_tickets",
          "type": "string[]"
        },
        {
          "internalType": "uint256",
          "name": "_eventId",
          "type": "uint256"
        }
      ],
      "name": "mintByEvent",
      "outputs": [],
      "payable": false,
      "stateMutability": "nonpayable",
      "type": "function"
    },
    {
      "constant": false,
      "inputs": [
        {
          "internalType": "address",
          "name": "_from",
          "type": "address"
        },
        {
          "internalType": "address",
          "name": "_to",
          "type": "address"
        },
        {
          "internalType": "uint256[]",
          "name": "_tokenIds",
          "type": "uint256[]"
        }
      ],
      "name": "multiTransferFrom",
      "outputs": [],
      "payable": false,
      "stateMutability": "nonpayable",
      "type": "function"
    }
  ],
  "bytecode": "0x60806040526000600e556000600f5560006014553480156200002057600080fd5b506040518060400160405280600681526020017f5469636b657400000000000000000000000000000000000000000000000000008152506040518060400160405280600381526020017f54434b00000000000000000000000000000000000000000000000000000000008152508181620000a76301ffc9a760e01b620001ad60201b60201c565b620000bf6380ac58cd60e01b620001ad60201b60201c565b620000d763780e9d6360e01b620001ad60201b60201c565b8160099080519060200190620000ef92919062000285565b5080600a90805190602001906200010892919062000285565b5062000121635b5e139f60e01b620001ad60201b60201c565b5050505033601060006101000a81548173ffffffffffffffffffffffffffffffffffffffff021916908373ffffffffffffffffffffffffffffffffffffffff16021790555033601560006101000a81548173ffffffffffffffffffffffffffffffffffffffff021916908373ffffffffffffffffffffffffffffffffffffffff160217905550620003a9565b63ffffffff60e01b817bffffffffffffffffffffffffffffffffffffffffffffffffffffffff1916141562000219576040517f08c379a0000000000000000000000000000000000000000000000000000000008152600401620002109062000376565b60405180910390fd5b6001600080837bffffffffffffffffffffffffffffffffffffffffffffffffffffffff19167bffffffffffffffffffffffffffffffffffffffffffffffffffffffff1916815260200190815260200160002060006101000a81548160ff02191690831515021790555050565b828054600181600116156101000203166002900490600052602060002090601f016020900481019282601f10620002c857805160ff1916838001178555620002f9565b82800160010185558215620002f9579182015b82811115620002f8578251825591602001919060010190620002db565b5b5090506200030891906200030c565b5090565b6200033191905b808211156200032d57600081600090555060010162000313565b5090565b90565b600062000343601c8362000398565b91507f4552433136353a20696e76616c696420696e74657266616365206964000000006000830152602082019050919050565b60006020820190508181036000830152620003918162000334565b9050919050565b600082825260208201905092915050565b613b2980620003b96000396000f3fe608060405234801561001057600080fd5b50600436106102325760003560e01c80636d1884e011610130578063b88d4fde116100b8578063d37f4acf1161007c578063d37f4acf146106dc578063e985e9c51461070c578063f39346f31461073c578063f487c6021461076c578063fe210f691461078857610232565b8063b88d4fde14610638578063c13cf59a14610654578063c87b56dd14610672578063cb44211e146106a2578063cfbd900f146106be57610232565b80638a62462e116100ff5780638a62462e1461059457806395d89b41146105b2578063a22cb465146105d0578063b4af93ad146105ec578063b4d59d271461060857610232565b80636d1884e0146104fa57806370a082311461052a57806379a9e8eb1461055a5780637cab5e8c1461057857610232565b80632f745c59116101be5780634f6ccce7116101825780634f6ccce71461043057806350b44712146104605780635768f271146104925780636352211e146104ae578063652d4725146104de57610232565b80632f745c5914610378578063323c635a146103a8578063331b2763146103c657806342842e0e146103f65780634a17bbde1461041257610232565b8063095ea7b311610205578063095ea7b3146102d35780630b791430146102ef57806318160ddd1461032057806319717d541461033e57806323b872dd1461035c57610232565b806301ffc9a71461023757806306fdde0314610267578063081812fc14610285578063089cdd0c146102b5575b600080fd5b610251600480360361024c9190810190612c86565b6107b8565b60405161025e9190613553565b60405180910390f35b61026f61081f565b60405161027c919061356e565b60405180910390f35b61029f600480360361029a9190810190612cd8565b6108c1565b6040516102ac91906134bc565b60405180910390f35b6102bd610946565b6040516102ca91906137f0565b60405180910390f35b6102ed60048036036102e89190810190612bb5565b61094c565b005b61030960048036036103049190810190612cd8565b610af9565b604051610317929190613523565b60405180910390f35b610328610bd5565b60405161033591906137f0565b60405180910390f35b610346610be2565b60405161035391906137f0565b60405180910390f35b61037660048036036103719190810190612a5b565b610be8565b005b610392600480360361038d9190810190612bb5565b610c41565b60405161039f91906137f0565b60405180910390f35b6103b0610cea565b6040516103bd91906137f0565b60405180910390f35b6103e060048036036103db919081019061298f565b610cf4565b6040516103ed9190613553565b60405180910390f35b610410600480360361040b9190810190612a5b565b610d4a565b005b61041a610d6a565b60405161042791906137f0565b60405180910390f35b61044a60048036036104459190810190612cd8565b610d74565b60405161045791906137f0565b60405180910390f35b61047a60048036036104759190810190612cd8565b610dde565b6040516104899392919061380b565b60405180910390f35b6104ac60048036036104a79190810190612bf1565b610ea0565b005b6104c860048036036104c39190810190612cd8565b610f52565b6040516104d591906134bc565b60405180910390f35b6104f860048036036104f39190810190612b61565b611004565b005b610514600480360361050f9190810190612cd8565b611152565b604051610521919061356e565b60405180910390f35b610544600480360361053f919081019061298f565b61120a565b60405161055191906137f0565b60405180910390f35b6105626112c9565b60405161056f91906134bc565b60405180910390f35b610592600480360361058d919081019061298f565b6112ef565b005b61059c6113da565b6040516105a991906134bc565b60405180910390f35b6105ba611404565b6040516105c7919061356e565b60405180910390f35b6105ea60048036036105e59190810190612b25565b6114a6565b005b61060660048036036106019190810190612c32565b611612565b005b610622600480360361061d9190810190612cd8565b6116c0565b60405161062f91906134bc565b60405180910390f35b610652600480360361064d9190810190612aaa565b6116f3565b005b61065c61174f565b60405161066991906134bc565b60405180910390f35b61068c60048036036106879190810190612cd8565b611775565b604051610699919061356e565b60405180910390f35b6106bc60048036036106b7919081019061298f565b611872565b005b6106c6611965565b6040516106d391906137f0565b60405180910390f35b6106f660048036036106f1919081019061298f565b61196b565b6040516107039190613553565b60405180910390f35b610726600480360361072191908101906129b8565b61198b565b6040516107339190613553565b60405180910390f35b6107566004803603610751919081019061298f565b611a1f565b60405161076391906137f0565b60405180910390f35b610786600480360361078191908101906129f4565b611b00565b005b6107a2600480360361079d9190810190612cd8565b611b40565b6040516107af91906134bc565b60405180910390f35b6000806000837bffffffffffffffffffffffffffffffffffffffffffffffffffffffff19167bffffffffffffffffffffffffffffffffffffffffffffffffffffffff1916815260200190815260200160002060009054906101000a900460ff169050919050565b606060098054600181600116156101000203166002900480601f0160208091040260200160405190810160405280929190818152602001828054600181600116156101000203166002900480156108b75780601f1061088c576101008083540402835291602001916108b7565b820191906000526020600020905b81548152906001019060200180831161089a57829003601f168201915b5050505050905090565b60006108cc82611b7d565b61090b576040517f08c379a000000000000000000000000000000000000000000000000000000000815260040161090290613710565b60405180910390fd5b6002600083815260200190815260200160002060009054906101000a900473ffffffffffffffffffffffffffffffffffffffff169050919050565b600e5481565b600061095782610f52565b90508073ffffffffffffffffffffffffffffffffffffffff168373ffffffffffffffffffffffffffffffffffffffff1614156109c8576040517f08c379a00000000000000000000000000000000000000000000000000000000081526004016109bf90613770565b60405180910390fd5b8073ffffffffffffffffffffffffffffffffffffffff163373ffffffffffffffffffffffffffffffffffffffff161480610a085750610a07813361198b565b5b610a47576040517f08c379a0000000000000000000000000000000000000000000000000000000008152600401610a3e90613690565b60405180910390fd5b826002600084815260200190815260200160002060006101000a81548173ffffffffffffffffffffffffffffffffffffffff021916908373ffffffffffffffffffffffffffffffffffffffff160217905550818373ffffffffffffffffffffffffffffffffffffffff168273ffffffffffffffffffffffffffffffffffffffff167f8c5be1e5ebec7d5bd14f71427d1e84f3dd0314c0f7b2291e5b200ac8c7c3b92560405160405180910390a4505050565b600c6020528060005260406000206000915090508060000160009054906101000a900473ffffffffffffffffffffffffffffffffffffffff1690806001018054600181600116156101000203166002900480601f016020809104026020016040519081016040528092919081815260200182805460018160011615610100020316600290048015610bcb5780601f10610ba057610100808354040283529160200191610bcb565b820191906000526020600020905b815481529060010190602001808311610bae57829003601f168201915b5050505050905082565b6000600780549050905090565b600f5481565b610bf23382611bef565b610c31576040517f08c379a0000000000000000000000000000000000000000000000000000000008152600401610c28906137b0565b60405180910390fd5b610c3c838383611ccd565b505050565b6000610c4c8361120a565b8210610c8d576040517f08c379a0000000000000000000000000000000000000000000000000000000008152600401610c8490613590565b60405180910390fd5b600560008473ffffffffffffffffffffffffffffffffffffffff1673ffffffffffffffffffffffffffffffffffffffff1681526020019081526020016000208281548110610cd757fe5b9060005260206000200154905092915050565b6000600f54905090565b6000600d60008373ffffffffffffffffffffffffffffffffffffffff1673ffffffffffffffffffffffffffffffffffffffff16815260200190815260200160002060009054906101000a900460ff169050919050565b610d65838383604051806020016040528060008152506116f3565b505050565b6000600e54905090565b6000610d7e610bd5565b8210610dbf576040517f08c379a0000000000000000000000000000000000000000000000000000000008152600401610db6906137d0565b60405180910390fd5b60078281548110610dcc57fe5b90600052602060002001549050919050565b6013602052806000526040600020600091509050806000015490806001018054600181600116156101000203166002900480601f016020809104026020016040519081016040528092919081815260200182805460018160011615610100020316600290048015610e905780601f10610e6557610100808354040283529160200191610e90565b820191906000526020600020905b815481529060010190602001808311610e7357829003601f168201915b5050505050908060020154905083565b60008090505b8151811015610f4e57610ebb33601454611cf1565b60405180606001604052806001600e54038152602001838381518110610edd57fe5b60200260200101518152602001601454815250601360006014548152602001908152602001600020600082015181600001556020820151816001019080519060200190610f2b929190612662565b5060408201518160020155905050610f41611d12565b8080600101915050610ea6565b5050565b6000806001600084815260200190815260200160002060009054906101000a900473ffffffffffffffffffffffffffffffffffffffff169050600073ffffffffffffffffffffffffffffffffffffffff168173ffffffffffffffffffffffffffffffffffffffff161415610ffb576040517f08c379a0000000000000000000000000000000000000000000000000000000008152600401610ff2906136d0565b60405180910390fd5b80915050919050565b60405180604001604052808373ffffffffffffffffffffffffffffffffffffffff16815260200182815250600c6000600e54815260200190815260200160002060008201518160000160006101000a81548173ffffffffffffffffffffffffffffffffffffffff021916908373ffffffffffffffffffffffffffffffffffffffff16021790555060208201518160010190805190602001906110a7929190612662565b509050508160116000600e54815260200190815260200160002060006101000a81548173ffffffffffffffffffffffffffffffffffffffff021916908373ffffffffffffffffffffffffffffffffffffffff160217905550611146601260008473ffffffffffffffffffffffffffffffffffffffff1673ffffffffffffffffffffffffffffffffffffffff168152602001908152602001600020611d25565b61114e611d3b565b5050565b6060600c60008381526020019081526020016000206001018054600181600116156101000203166002900480601f0160208091040260200160405190810160405280929190818152602001828054600181600116156101000203166002900480156111fe5780601f106111d3576101008083540402835291602001916111fe565b820191906000526020600020905b8154815290600101906020018083116111e157829003601f168201915b50505050509050919050565b60008073ffffffffffffffffffffffffffffffffffffffff168273ffffffffffffffffffffffffffffffffffffffff16141561127b576040517f08c379a0000000000000000000000000000000000000000000000000000000008152600401611272906136b0565b60405180910390fd5b6112c2600360008473ffffffffffffffffffffffffffffffffffffffff1673ffffffffffffffffffffffffffffffffffffffff168152602001908152602001600020611d4e565b9050919050565b601560009054906101000a900473ffffffffffffffffffffffffffffffffffffffff1681565b3373ffffffffffffffffffffffffffffffffffffffff16601060009054906101000a900473ffffffffffffffffffffffffffffffffffffffff1673ffffffffffffffffffffffffffffffffffffffff161461137f576040517f08c379a000000000000000000000000000000000000000000000000000000000815260040161137690613670565b60405180910390fd5b6000600d60008373ffffffffffffffffffffffffffffffffffffffff1673ffffffffffffffffffffffffffffffffffffffff16815260200190815260200160002060006101000a81548160ff02191690831515021790555050565b6000601060009054906101000a900473ffffffffffffffffffffffffffffffffffffffff16905090565b6060600a8054600181600116156101000203166002900480601f01602080910402602001604051908101604052809291908181526020018280546001816001161561010002031660029004801561149c5780601f106114715761010080835404028352916020019161149c565b820191906000526020600020905b81548152906001019060200180831161147f57829003601f168201915b5050505050905090565b3373ffffffffffffffffffffffffffffffffffffffff168273ffffffffffffffffffffffffffffffffffffffff161415611515576040517f08c379a000000000000000000000000000000000000000000000000000000000815260040161150c90613610565b60405180910390fd5b80600460003373ffffffffffffffffffffffffffffffffffffffff1673ffffffffffffffffffffffffffffffffffffffff16815260200190815260200160002060008473ffffffffffffffffffffffffffffffffffffffff1673ffffffffffffffffffffffffffffffffffffffff16815260200190815260200160002060006101000a81548160ff0219169083151502179055508173ffffffffffffffffffffffffffffffffffffffff163373ffffffffffffffffffffffffffffffffffffffff167f17307eab39ab6107e8899845ad3d59bd9653f200f220920489ca2b5937696c31836040516116069190613553565b60405180910390a35050565b60008090505b82518110156116bb5761162d33601454611cf1565b604051806060016040528083815260200184838151811061164a57fe5b60200260200101518152602001601454815250601360006014548152602001908152602001600020600082015181600001556020820151816001019080519060200190611698929190612662565b50604082015181600201559050506116ae611d12565b8080600101915050611618565b505050565b60116020528060005260406000206000915054906101000a900473ffffffffffffffffffffffffffffffffffffffff1681565b6116fe848484610be8565b61170a84848484611d5c565b611749576040517f08c379a0000000000000000000000000000000000000000000000000000000008152600401611740906135b0565b60405180910390fd5b50505050565b601060009054906101000a900473ffffffffffffffffffffffffffffffffffffffff1681565b606061178082611b7d565b6117bf576040517f08c379a00000000000000000000000000000000000000000000000000000000081526004016117b690613750565b60405180910390fd5b600b60008381526020019081526020016000208054600181600116156101000203166002900480601f0160208091040260200160405190810160405280929190818152602001828054600181600116156101000203166002900480156118665780601f1061183b57610100808354040283529160200191611866565b820191906000526020600020905b81548152906001019060200180831161184957829003601f168201915b50505050509050919050565b3373ffffffffffffffffffffffffffffffffffffffff16601060009054906101000a900473ffffffffffffffffffffffffffffffffffffffff1673ffffffffffffffffffffffffffffffffffffffff1614611902576040517f08c379a00000000000000000000000000000000000000000000000000000000081526004016118f990613670565b60405180910390fd5b6001600d60008373ffffffffffffffffffffffffffffffffffffffff1673ffffffffffffffffffffffffffffffffffffffff16815260200190815260200160002060006101000a81548160ff021916908315150217905550611962611e73565b50565b60145481565b600d6020528060005260406000206000915054906101000a900460ff1681565b6000600460008473ffffffffffffffffffffffffffffffffffffffff1673ffffffffffffffffffffffffffffffffffffffff16815260200190815260200160002060008373ffffffffffffffffffffffffffffffffffffffff1673ffffffffffffffffffffffffffffffffffffffff16815260200190815260200160002060009054906101000a900460ff16905092915050565b60008073ffffffffffffffffffffffffffffffffffffffff16601060009054906101000a900473ffffffffffffffffffffffffffffffffffffffff1673ffffffffffffffffffffffffffffffffffffffff161415611ab2576040517f08c379a0000000000000000000000000000000000000000000000000000000008152600401611aa990613790565b60405180910390fd5b611af9601260008473ffffffffffffffffffffffffffffffffffffffff1673ffffffffffffffffffffffffffffffffffffffff168152602001908152602001600020611d4e565b9050919050565b60008090505b8151811015611b3a57611b2d8484848481518110611b2057fe5b6020026020010151610d4a565b8080600101915050611b06565b50505050565b60006011600083815260200190815260200160002060009054906101000a900473ffffffffffffffffffffffffffffffffffffffff169050919050565b6000806001600084815260200190815260200160002060009054906101000a900473ffffffffffffffffffffffffffffffffffffffff169050600073ffffffffffffffffffffffffffffffffffffffff168173ffffffffffffffffffffffffffffffffffffffff161415915050919050565b6000611bfa82611b7d565b611c39576040517f08c379a0000000000000000000000000000000000000000000000000000000008152600401611c3090613650565b60405180910390fd5b6000611c4483610f52565b90508073ffffffffffffffffffffffffffffffffffffffff168473ffffffffffffffffffffffffffffffffffffffff161480611cb357508373ffffffffffffffffffffffffffffffffffffffff16611c9b846108c1565b73ffffffffffffffffffffffffffffffffffffffff16145b80611cc45750611cc3818561198b565b5b91505092915050565b611cd8838383611e86565b611ce283826120b5565b611cec8282612253565b505050565b611cfb828261231a565b611d058282612253565b611d0e816124cc565b5050565b6001601460008282540192505081905550565b6001816000016000828254019250508190555050565b6001600e60008282540192505081905550565b600081600001549050919050565b6000611d7d8473ffffffffffffffffffffffffffffffffffffffff16612518565b611d8a5760019050611e6b565b60008473ffffffffffffffffffffffffffffffffffffffff1663150b7a02338887876040518563ffffffff1660e01b8152600401611dcb94939291906134d7565b602060405180830381600087803b158015611de557600080fd5b505af1158015611df9573d6000803e3d6000fd5b505050506040513d601f19601f82011682018060405250611e1d9190810190612caf565b905063150b7a0260e01b7bffffffffffffffffffffffffffffffffffffffffffffffffffffffff1916817bffffffffffffffffffffffffffffffffffffffffffffffffffffffff1916149150505b949350505050565b6001600f60008282540192505081905550565b8273ffffffffffffffffffffffffffffffffffffffff16611ea682610f52565b73ffffffffffffffffffffffffffffffffffffffff1614611efc576040517f08c379a0000000000000000000000000000000000000000000000000000000008152600401611ef390613730565b60405180910390fd5b600073ffffffffffffffffffffffffffffffffffffffff168273ffffffffffffffffffffffffffffffffffffffff161415611f6c576040517f08c379a0000000000000000000000000000000000000000000000000000000008152600401611f63906135f0565b60405180910390fd5b611f758161252b565b611fbc600360008573ffffffffffffffffffffffffffffffffffffffff1673ffffffffffffffffffffffffffffffffffffffff1681526020019081526020016000206125e9565b612003600360008473ffffffffffffffffffffffffffffffffffffffff1673ffffffffffffffffffffffffffffffffffffffff168152602001908152602001600020611d25565b816001600083815260200190815260200160002060006101000a81548173ffffffffffffffffffffffffffffffffffffffff021916908373ffffffffffffffffffffffffffffffffffffffff160217905550808273ffffffffffffffffffffffffffffffffffffffff168473ffffffffffffffffffffffffffffffffffffffff167fddf252ad1be2c89b69c2b068fc378daa952ba7f163c4a11628f55a4df523b3ef60405160405180910390a4505050565b600061210d6001600560008673ffffffffffffffffffffffffffffffffffffffff1673ffffffffffffffffffffffffffffffffffffffff1681526020019081526020016000208054905061260c90919063ffffffff16565b90506000600660008481526020019081526020016000205490508181146121fa576000600560008673ffffffffffffffffffffffffffffffffffffffff1673ffffffffffffffffffffffffffffffffffffffff168152602001908152602001600020838154811061217a57fe5b9060005260206000200154905080600560008773ffffffffffffffffffffffffffffffffffffffff1673ffffffffffffffffffffffffffffffffffffffff16815260200190815260200160002083815481106121d257fe5b9060005260206000200181905550816006600083815260200190815260200160002081905550505b600560008573ffffffffffffffffffffffffffffffffffffffff1673ffffffffffffffffffffffffffffffffffffffff16815260200190815260200160002080548091906001900361224c91906126e2565b5050505050565b600560008373ffffffffffffffffffffffffffffffffffffffff1673ffffffffffffffffffffffffffffffffffffffff168152602001908152602001600020805490506006600083815260200190815260200160002081905550600560008373ffffffffffffffffffffffffffffffffffffffff1673ffffffffffffffffffffffffffffffffffffffff1681526020019081526020016000208190806001815401808255809150509060018203906000526020600020016000909192909190915055505050565b600073ffffffffffffffffffffffffffffffffffffffff168273ffffffffffffffffffffffffffffffffffffffff16141561238a576040517f08c379a0000000000000000000000000000000000000000000000000000000008152600401612381906136f0565b60405180910390fd5b61239381611b7d565b156123d3576040517f08c379a00000000000000000000000000000000000000000000000000000000081526004016123ca906135d0565b60405180910390fd5b816001600083815260200190815260200160002060006101000a81548173ffffffffffffffffffffffffffffffffffffffff021916908373ffffffffffffffffffffffffffffffffffffffff16021790555061246c600360008473ffffffffffffffffffffffffffffffffffffffff1673ffffffffffffffffffffffffffffffffffffffff168152602001908152602001600020611d25565b808273ffffffffffffffffffffffffffffffffffffffff16600073ffffffffffffffffffffffffffffffffffffffff167fddf252ad1be2c89b69c2b068fc378daa952ba7f163c4a11628f55a4df523b3ef60405160405180910390a45050565b6007805490506008600083815260200190815260200160002081905550600781908060018154018082558091505090600182039060005260206000200160009091929091909150555050565b600080823b905060008111915050919050565b600073ffffffffffffffffffffffffffffffffffffffff166002600083815260200190815260200160002060009054906101000a900473ffffffffffffffffffffffffffffffffffffffff1673ffffffffffffffffffffffffffffffffffffffff16146125e65760006002600083815260200190815260200160002060006101000a81548173ffffffffffffffffffffffffffffffffffffffff021916908373ffffffffffffffffffffffffffffffffffffffff1602179055505b50565b6126016001826000015461260c90919063ffffffff16565b816000018190555050565b600082821115612651576040517f08c379a000000000000000000000000000000000000000000000000000000000815260040161264890613630565b60405180910390fd5b600082840390508091505092915050565b828054600181600116156101000203166002900490600052602060002090601f016020900481019282601f106126a357805160ff19168380011785556126d1565b828001600101855582156126d1579182015b828111156126d05782518255916020019190600101906126b5565b5b5090506126de919061270e565b5090565b81548183558181111561270957818360005260206000209182019101612708919061270e565b5b505050565b61273091905b8082111561272c576000816000905550600101612714565b5090565b90565b60008135905061274281613a8a565b92915050565b600082601f83011261275957600080fd5b813561276c61276782613876565b613849565b9150818183526020840193506020810190508360005b838110156127b2578135860161279888826128d2565b845260208401935060208301925050600181019050612782565b5050505092915050565b600082601f8301126127cd57600080fd5b81356127e06127db8261389e565b613849565b9150818183526020840193506020810190508385602084028201111561280557600080fd5b60005b83811015612835578161281b888261297a565b845260208401935060208301925050600181019050612808565b5050505092915050565b60008135905061284e81613aa1565b92915050565b60008135905061286381613ab8565b92915050565b60008151905061287881613ab8565b92915050565b600082601f83011261288f57600080fd5b81356128a261289d826138c6565b613849565b915080825260208301602083018583830111156128be57600080fd5b6128c9838284613a37565b50505092915050565b600082601f8301126128e357600080fd5b81356128f66128f1826138f2565b613849565b9150808252602083016020830185838301111561291257600080fd5b61291d838284613a37565b50505092915050565b600082601f83011261293757600080fd5b813561294a6129458261391e565b613849565b9150808252602083016020830185838301111561296657600080fd5b612971838284613a37565b50505092915050565b60008135905061298981613acf565b92915050565b6000602082840312156129a157600080fd5b60006129af84828501612733565b91505092915050565b600080604083850312156129cb57600080fd5b60006129d985828601612733565b92505060206129ea85828601612733565b9150509250929050565b600080600060608486031215612a0957600080fd5b6000612a1786828701612733565b9350506020612a2886828701612733565b925050604084013567ffffffffffffffff811115612a4557600080fd5b612a51868287016127bc565b9150509250925092565b600080600060608486031215612a7057600080fd5b6000612a7e86828701612733565b9350506020612a8f86828701612733565b9250506040612aa08682870161297a565b9150509250925092565b60008060008060808587031215612ac057600080fd5b6000612ace87828801612733565b9450506020612adf87828801612733565b9350506040612af08782880161297a565b925050606085013567ffffffffffffffff811115612b0d57600080fd5b612b198782880161287e565b91505092959194509250565b60008060408385031215612b3857600080fd5b6000612b4685828601612733565b9250506020612b578582860161283f565b9150509250929050565b60008060408385031215612b7457600080fd5b6000612b8285828601612733565b925050602083013567ffffffffffffffff811115612b9f57600080fd5b612bab85828601612926565b9150509250929050565b60008060408385031215612bc857600080fd5b6000612bd685828601612733565b9250506020612be78582860161297a565b9150509250929050565b600060208284031215612c0357600080fd5b600082013567ffffffffffffffff811115612c1d57600080fd5b612c2984828501612748565b91505092915050565b60008060408385031215612c4557600080fd5b600083013567ffffffffffffffff811115612c5f57600080fd5b612c6b85828601612748565b9250506020612c7c8582860161297a565b9150509250929050565b600060208284031215612c9857600080fd5b6000612ca684828501612854565b91505092915050565b600060208284031215612cc157600080fd5b6000612ccf84828501612869565b91505092915050565b600060208284031215612cea57600080fd5b6000612cf88482850161297a565b91505092915050565b612d0a81613a01565b82525050565b612d198161398d565b82525050565b612d288161399f565b82525050565b6000612d398261394a565b612d43818561396b565b9350612d53818560208601613a46565b612d5c81613a79565b840191505092915050565b6000612d7282613960565b612d7c818561397c565b9350612d8c818560208601613a46565b612d9581613a79565b840191505092915050565b6000612dab82613955565b612db5818561397c565b9350612dc5818560208601613a46565b612dce81613a79565b840191505092915050565b6000612de6602b8361397c565b91507f455243373231456e756d657261626c653a206f776e657220696e646578206f7560008301527f74206f6620626f756e64730000000000000000000000000000000000000000006020830152604082019050919050565b6000612e4c60328361397c565b91507f4552433732313a207472616e7366657220746f206e6f6e20455243373231526560008301527f63656976657220696d706c656d656e74657200000000000000000000000000006020830152604082019050919050565b6000612eb2601c8361397c565b91507f4552433732313a20746f6b656e20616c7265616479206d696e746564000000006000830152602082019050919050565b6000612ef260248361397c565b91507f4552433732313a207472616e7366657220746f20746865207a65726f2061646460008301527f72657373000000000000000000000000000000000000000000000000000000006020830152604082019050919050565b6000612f5860198361397c565b91507f4552433732313a20617070726f766520746f2063616c6c6572000000000000006000830152602082019050919050565b6000612f98601e8361397c565b91507f536166654d6174683a207375627472616374696f6e206f766572666c6f7700006000830152602082019050919050565b6000612fd8602c8361397c565b91507f4552433732313a206f70657261746f7220717565727920666f72206e6f6e657860008301527f697374656e7420746f6b656e00000000000000000000000000000000000000006020830152604082019050919050565b600061303e60158361397c565b91507f73656e646572206973206e6f742061206f776e657200000000000000000000006000830152602082019050919050565b600061307e60388361397c565b91507f4552433732313a20617070726f76652063616c6c6572206973206e6f74206f7760008301527f6e6572206e6f7220617070726f76656420666f7220616c6c00000000000000006020830152604082019050919050565b60006130e4602a8361397c565b91507f4552433732313a2062616c616e636520717565727920666f7220746865207a6560008301527f726f2061646472657373000000000000000000000000000000000000000000006020830152604082019050919050565b600061314a60298361397c565b91507f4552433732313a206f776e657220717565727920666f72206e6f6e657869737460008301527f656e7420746f6b656e00000000000000000000000000000000000000000000006020830152604082019050919050565b60006131b060208361397c565b91507f4552433732313a206d696e7420746f20746865207a65726f20616464726573736000830152602082019050919050565b60006131f0602c8361397c565b91507f4552433732313a20617070726f76656420717565727920666f72206e6f6e657860008301527f697374656e7420746f6b656e00000000000000000000000000000000000000006020830152604082019050919050565b600061325660298361397c565b91507f4552433732313a207472616e73666572206f6620746f6b656e2074686174206960008301527f73206e6f74206f776e00000000000000000000000000000000000000000000006020830152604082019050919050565b60006132bc602f8361397c565b91507f4552433732314d657461646174613a2055524920717565727920666f72206e6f60008301527f6e6578697374656e7420746f6b656e00000000000000000000000000000000006020830152604082019050919050565b600061332260218361397c565b91507f4552433732313a20617070726f76616c20746f2063757272656e74206f776e6560008301527f72000000000000000000000000000000000000000000000000000000000000006020830152604082019050919050565b600061338860298361397c565b91507f4576656e743a2062616c616e636520717565727920666f7220746865207a657260008301527f6f206164647265737300000000000000000000000000000000000000000000006020830152604082019050919050565b60006133ee60318361397c565b91507f4552433732313a207472616e736665722063616c6c6572206973206e6f74206f60008301527f776e6572206e6f7220617070726f7665640000000000000000000000000000006020830152604082019050919050565b6000613454602c8361397c565b91507f455243373231456e756d657261626c653a20676c6f62616c20696e646578206f60008301527f7574206f6620626f756e647300000000000000000000000000000000000000006020830152604082019050919050565b6134b6816139f7565b82525050565b60006020820190506134d16000830184612d10565b92915050565b60006080820190506134ec6000830187612d01565b6134f96020830186612d10565b61350660408301856134ad565b81810360608301526135188184612d2e565b905095945050505050565b60006040820190506135386000830185612d10565b818103602083015261354a8184612da0565b90509392505050565b60006020820190506135686000830184612d1f565b92915050565b600060208201905081810360008301526135888184612d67565b905092915050565b600060208201905081810360008301526135a981612dd9565b9050919050565b600060208201905081810360008301526135c981612e3f565b9050919050565b600060208201905081810360008301526135e981612ea5565b9050919050565b6000602082019050818103600083015261360981612ee5565b9050919050565b6000602082019050818103600083015261362981612f4b565b9050919050565b6000602082019050818103600083015261364981612f8b565b9050919050565b6000602082019050818103600083015261366981612fcb565b9050919050565b6000602082019050818103600083015261368981613031565b9050919050565b600060208201905081810360008301526136a981613071565b9050919050565b600060208201905081810360008301526136c9816130d7565b9050919050565b600060208201905081810360008301526136e98161313d565b9050919050565b60006020820190508181036000830152613709816131a3565b9050919050565b60006020820190508181036000830152613729816131e3565b9050919050565b6000602082019050818103600083015261374981613249565b9050919050565b60006020820190508181036000830152613769816132af565b9050919050565b6000602082019050818103600083015261378981613315565b9050919050565b600060208201905081810360008301526137a98161337b565b9050919050565b600060208201905081810360008301526137c9816133e1565b9050919050565b600060208201905081810360008301526137e981613447565b9050919050565b600060208201905061380560008301846134ad565b92915050565b600060608201905061382060008301866134ad565b81810360208301526138328185612da0565b905061384160408301846134ad565b949350505050565b6000604051905081810181811067ffffffffffffffff8211171561386c57600080fd5b8060405250919050565b600067ffffffffffffffff82111561388d57600080fd5b602082029050602081019050919050565b600067ffffffffffffffff8211156138b557600080fd5b602082029050602081019050919050565b600067ffffffffffffffff8211156138dd57600080fd5b601f19601f8301169050602081019050919050565b600067ffffffffffffffff82111561390957600080fd5b601f19601f8301169050602081019050919050565b600067ffffffffffffffff82111561393557600080fd5b601f19601f8301169050602081019050919050565b600081519050919050565b600081519050919050565b600081519050919050565b600082825260208201905092915050565b600082825260208201905092915050565b6000613998826139d7565b9050919050565b60008115159050919050565b60007fffffffff0000000000000000000000000000000000000000000000000000000082169050919050565b600073ffffffffffffffffffffffffffffffffffffffff82169050919050565b6000819050919050565b6000613a0c82613a13565b9050919050565b6000613a1e82613a25565b9050919050565b6000613a30826139d7565b9050919050565b82818337600083830152505050565b60005b83811015613a64578082015181840152602081019050613a49565b83811115613a73576000848401525b50505050565b6000601f19601f8301169050919050565b613a938161398d565b8114613a9e57600080fd5b50565b613aaa8161399f565b8114613ab557600080fd5b50565b613ac1816139ab565b8114613acc57600080fd5b50565b613ad8816139f7565b8114613ae357600080fd5b5056fea365627a7a723158206ba416eb421a8a304be4506c053d4d7a2c385d2a817c58ad12a3d672af44c6a76c6578706572696d656e74616cf564736f6c63430005100040",
  "source": "pragma solidity ^0.5.16;\r\npragma experimental ABIEncoderV2;\r\n\r\nimport \"./ERC721Full.sol\";\r\nimport \"./Event.sol\";\r\n\r\ncontract Ticket is ERC721Full, Event {\r\n  mapping(uint256 => Ticket) public tickets;\r\n  // mapping(string => bool) _ticketExists;\r\n  uint256 public ticketCount = 0;\r\n  address public ticketContractOwner;\r\n\r\n  constructor() ERC721Full(\"Ticket\", \"TCK\") public {\r\n    ticketContractOwner = msg.sender;\r\n  }\r\n\r\n  struct Ticket {\r\n    uint256 eventId;\r\n    string ticketDetail;\r\n    uint256 ticketId;\r\n  }\r\n\r\n  function incrementCount() internal {\r\n    ticketCount += 1;\r\n  }\r\n\r\n\r\n  function mint(string[] memory _tickets) public {\r\n    for(uint index = 0; index < _tickets.length; index++) {\r\n      _mint(msg.sender, ticketCount);\r\n      tickets[ticketCount] = Ticket(eventId - 1, _tickets[index], ticketCount);\r\n      incrementCount();\r\n    }\r\n    // require(!_ticketExists[_ticket]);\r\n\r\n    // _ticketExists[_ticket] = true;\r\n  }\r\n\r\n  function mintByEvent(string[] memory _tickets, uint256 _eventId) public {\r\n    for(uint index = 0; index < _tickets.length; index++) {\r\n      _mint(msg.sender, ticketCount);\r\n      tickets[ticketCount] = Ticket(_eventId, _tickets[index], ticketCount);\r\n      incrementCount();\r\n    }\r\n  }\r\n  \r\n  function multiTransferFrom(address _from, address _to, uint256[] memory _tokenIds) public {\r\n    for(uint index = 0; index < _tokenIds.length; index++) {\r\n      safeTransferFrom(_from, _to, _tokenIds[index]);\r\n    }\r\n  }\r\n\r\n}\r\n",
  "sourcePath": "C:/Users/Tim-CH/Desktop/smart-ticket-app/src/contracts/Ticket.sol",
  "compiler": {
    "name": "solc",
    "version": "0.5.16+commit.9c3226ce.Emscripten.clang"
  },
  "schemaVersion": "3.3.3",
  "updatedAt": "2021-01-04T09:23:34.485Z",
  "networkType": "ethereum",
  "devdoc": {
    "methods": {
      "approve(address,uint256)": {
        "details": "Approves another address to transfer the given token ID The zero address indicates there is no approved address. There can only be one approved address per token at a given time. Can only be called by the token owner or an approved operator.",
        "params": {
          "to": "address to be approved for the given token ID",
          "tokenId": "uint256 ID of the token to be approved"
        }
      },
      "balanceOf(address)": {
        "details": "Gets the balance of the specified address.",
        "params": {
          "owner": "address to query the balance of"
        },
        "return": "uint256 representing the amount owned by the passed address"
      },
      "getApproved(uint256)": {
        "details": "Gets the approved address for a token ID, or zero if no address set Reverts if the token ID does not exist.",
        "params": {
          "tokenId": "uint256 ID of the token to query the approval of"
        },
        "return": "address currently approved for the given token ID"
      },
      "isApprovedForAll(address,address)": {
        "details": "Tells whether an operator is approved by a given owner.",
        "params": {
          "operator": "operator address which you want to query the approval of",
          "owner": "owner address which you want to query the approval of"
        },
        "return": "bool whether the given operator is approved by the given owner"
      },
      "name()": {
        "details": "Gets the token name.",
        "return": "string representing the token name"
      },
      "ownerOf(uint256)": {
        "details": "Gets the owner of the specified token ID.",
        "params": {
          "tokenId": "uint256 ID of the token to query the owner of"
        },
        "return": "address currently marked as the owner of the given token ID"
      },
      "safeTransferFrom(address,address,uint256)": {
        "details": "Safely transfers the ownership of a given token ID to another address If the target address is a contract, it must implement `onERC721Received`, which is called upon a safe transfer, and return the magic value `bytes4(keccak256(\"onERC721Received(address,address,uint256,bytes)\"))`; otherwise, the transfer is reverted. Requires the msg.sender to be the owner, approved, or operator",
        "params": {
          "from": "current owner of the token",
          "to": "address to receive the ownership of the given token ID",
          "tokenId": "uint256 ID of the token to be transferred"
        }
      },
      "safeTransferFrom(address,address,uint256,bytes)": {
        "details": "Safely transfers the ownership of a given token ID to another address If the target address is a contract, it must implement `onERC721Received`, which is called upon a safe transfer, and return the magic value `bytes4(keccak256(\"onERC721Received(address,address,uint256,bytes)\"))`; otherwise, the transfer is reverted. Requires the msg.sender to be the owner, approved, or operator",
        "params": {
          "_data": "bytes data to send along with a safe transfer check",
          "from": "current owner of the token",
          "to": "address to receive the ownership of the given token ID",
          "tokenId": "uint256 ID of the token to be transferred"
        }
      },
      "setApprovalForAll(address,bool)": {
        "details": "Sets or unsets the approval of a given operator An operator is allowed to transfer all tokens of the sender on their behalf.",
        "params": {
          "approved": "representing the status of the approval to be set",
          "to": "operator address to set the approval"
        }
      },
      "supportsInterface(bytes4)": {
        "details": "See `IERC165.supportsInterface`.      * Time complexity O(1), guaranteed to always use less than 30 000 gas."
      },
      "symbol()": {
        "details": "Gets the token symbol.",
        "return": "string representing the token symbol"
      },
      "tokenByIndex(uint256)": {
        "details": "Gets the token ID at a given index of all the tokens in this contract Reverts if the index is greater or equal to the total number of tokens.",
        "params": {
          "index": "uint256 representing the index to be accessed of the tokens list"
        },
        "return": "uint256 token ID at the given index of the tokens list"
      },
      "tokenOfOwnerByIndex(address,uint256)": {
        "details": "Gets the token ID at a given index of the tokens list of the requested owner.",
        "params": {
          "index": "uint256 representing the index to be accessed of the requested tokens list",
          "owner": "address owning the tokens list to be accessed"
        },
        "return": "uint256 token ID at the given index of the tokens list owned by the requested address"
      },
      "tokenURI(uint256)": {
        "details": "Returns an URI for a given token ID. Throws if the token ID does not exist. May return an empty string.",
        "params": {
          "tokenId": "uint256 ID of the token to query"
        }
      },
      "totalSupply()": {
        "details": "Gets the total amount of tokens stored by the contract.",
        "return": "uint256 representing the total amount of tokens"
      },
      "transferFrom(address,address,uint256)": {
        "details": "Transfers the ownership of a given token ID to another address. Usage of this method is discouraged, use `safeTransferFrom` whenever possible. Requires the msg.sender to be the owner, approved, or operator.",
        "params": {
          "from": "current owner of the token",
          "to": "address to receive the ownership of the given token ID",
          "tokenId": "uint256 ID of the token to be transferred"
        }
      }
    }
  },
  "userdoc": {
    "methods": {}
  }
}