{
  "contractName": "Ticket",
  "abi": [
    {
      "inputs": [],
      "payable": false,
      "stateMutability": "nonpayable",
      "type": "constructor"
    },
    {
      "anonymous": false,
      "inputs": [
        {
          "indexed": true,
          "internalType": "address",
          "name": "owner",
          "type": "address"
        },
        {
          "indexed": true,
          "internalType": "address",
          "name": "approved",
          "type": "address"
        },
        {
          "indexed": true,
          "internalType": "uint256",
          "name": "tokenId",
          "type": "uint256"
        }
      ],
      "name": "Approval",
      "type": "event"
    },
    {
      "anonymous": false,
      "inputs": [
        {
          "indexed": true,
          "internalType": "address",
          "name": "owner",
          "type": "address"
        },
        {
          "indexed": true,
          "internalType": "address",
          "name": "operator",
          "type": "address"
        },
        {
          "indexed": false,
          "internalType": "bool",
          "name": "approved",
          "type": "bool"
        }
      ],
      "name": "ApprovalForAll",
      "type": "event"
    },
    {
      "anonymous": false,
      "inputs": [
        {
          "indexed": true,
          "internalType": "address",
          "name": "from",
          "type": "address"
        },
        {
          "indexed": true,
          "internalType": "address",
          "name": "to",
          "type": "address"
        },
        {
          "indexed": true,
          "internalType": "uint256",
          "name": "tokenId",
          "type": "uint256"
        }
      ],
      "name": "Transfer",
      "type": "event"
    },
    {
      "constant": false,
      "inputs": [
        {
          "internalType": "address",
          "name": "_approve",
          "type": "address"
        }
      ],
      "name": "addApproval",
      "outputs": [],
      "payable": false,
      "stateMutability": "nonpayable",
      "type": "function"
    },
    {
      "constant": false,
      "inputs": [
        {
          "internalType": "address",
          "name": "to",
          "type": "address"
        },
        {
          "internalType": "uint256",
          "name": "tokenId",
          "type": "uint256"
        }
      ],
      "name": "approve",
      "outputs": [],
      "payable": false,
      "stateMutability": "nonpayable",
      "type": "function"
    },
    {
      "constant": true,
      "inputs": [],
      "name": "approveId",
      "outputs": [
        {
          "internalType": "uint256",
          "name": "",
          "type": "uint256"
        }
      ],
      "payable": false,
      "stateMutability": "view",
      "type": "function"
    },
    {
      "constant": true,
      "inputs": [
        {
          "internalType": "address",
          "name": "",
          "type": "address"
        }
      ],
      "name": "approves",
      "outputs": [
        {
          "internalType": "bool",
          "name": "",
          "type": "bool"
        }
      ],
      "payable": false,
      "stateMutability": "view",
      "type": "function"
    },
    {
      "constant": true,
      "inputs": [
        {
          "internalType": "address",
          "name": "owner",
          "type": "address"
        }
      ],
      "name": "balanceOf",
      "outputs": [
        {
          "internalType": "uint256",
          "name": "",
          "type": "uint256"
        }
      ],
      "payable": false,
      "stateMutability": "view",
      "type": "function"
    },
    {
      "constant": false,
      "inputs": [
        {
          "internalType": "address",
          "name": "_owner",
          "type": "address"
        },
        {
          "internalType": "string",
          "name": "_detail",
          "type": "string"
        }
      ],
      "name": "createEvent",
      "outputs": [],
      "payable": false,
      "stateMutability": "nonpayable",
      "type": "function"
    },
    {
      "constant": true,
      "inputs": [],
      "name": "eventContractOwner",
      "outputs": [
        {
          "internalType": "address",
          "name": "",
          "type": "address"
        }
      ],
      "payable": false,
      "stateMutability": "view",
      "type": "function"
    },
    {
      "constant": true,
      "inputs": [],
      "name": "eventId",
      "outputs": [
        {
          "internalType": "uint256",
          "name": "",
          "type": "uint256"
        }
      ],
      "payable": false,
      "stateMutability": "view",
      "type": "function"
    },
    {
      "constant": true,
      "inputs": [
        {
          "internalType": "uint256",
          "name": "",
          "type": "uint256"
        }
      ],
      "name": "eventOwner",
      "outputs": [
        {
          "internalType": "address",
          "name": "",
          "type": "address"
        }
      ],
      "payable": false,
      "stateMutability": "view",
      "type": "function"
    },
    {
      "constant": true,
      "inputs": [
        {
          "internalType": "address",
          "name": "_owner",
          "type": "address"
        }
      ],
      "name": "eventOwnerBalanceOf",
      "outputs": [
        {
          "internalType": "uint256",
          "name": "",
          "type": "uint256"
        }
      ],
      "payable": false,
      "stateMutability": "view",
      "type": "function"
    },
    {
      "constant": true,
      "inputs": [
        {
          "internalType": "uint256",
          "name": "",
          "type": "uint256"
        }
      ],
      "name": "events",
      "outputs": [
        {
          "internalType": "address",
          "name": "owner",
          "type": "address"
        },
        {
          "internalType": "string",
          "name": "detail",
          "type": "string"
        }
      ],
      "payable": false,
      "stateMutability": "view",
      "type": "function"
    },
    {
      "constant": true,
      "inputs": [],
      "name": "getApproveId",
      "outputs": [
        {
          "internalType": "uint256",
          "name": "",
          "type": "uint256"
        }
      ],
      "payable": false,
      "stateMutability": "view",
      "type": "function"
    },
    {
      "constant": true,
      "inputs": [
        {
          "internalType": "uint256",
          "name": "tokenId",
          "type": "uint256"
        }
      ],
      "name": "getApproved",
      "outputs": [
        {
          "internalType": "address",
          "name": "",
          "type": "address"
        }
      ],
      "payable": false,
      "stateMutability": "view",
      "type": "function"
    },
    {
      "constant": true,
      "inputs": [
        {
          "internalType": "uint256",
          "name": "_eventId",
          "type": "uint256"
        }
      ],
      "name": "getEvent",
      "outputs": [
        {
          "internalType": "string",
          "name": "",
          "type": "string"
        }
      ],
      "payable": false,
      "stateMutability": "view",
      "type": "function"
    },
    {
      "constant": true,
      "inputs": [],
      "name": "getEventContractOwner",
      "outputs": [
        {
          "internalType": "address",
          "name": "",
          "type": "address"
        }
      ],
      "payable": false,
      "stateMutability": "view",
      "type": "function"
    },
    {
      "constant": true,
      "inputs": [],
      "name": "getEventId",
      "outputs": [
        {
          "internalType": "uint256",
          "name": "",
          "type": "uint256"
        }
      ],
      "payable": false,
      "stateMutability": "view",
      "type": "function"
    },
    {
      "constant": true,
      "inputs": [
        {
          "internalType": "uint256",
          "name": "_eventId",
          "type": "uint256"
        }
      ],
      "name": "getEventOwner",
      "outputs": [
        {
          "internalType": "address",
          "name": "",
          "type": "address"
        }
      ],
      "payable": false,
      "stateMutability": "view",
      "type": "function"
    },
    {
      "constant": true,
      "inputs": [
        {
          "internalType": "address",
          "name": "_approve",
          "type": "address"
        }
      ],
      "name": "isApproval",
      "outputs": [
        {
          "internalType": "bool",
          "name": "",
          "type": "bool"
        }
      ],
      "payable": false,
      "stateMutability": "view",
      "type": "function"
    },
    {
      "constant": true,
      "inputs": [
        {
          "internalType": "address",
          "name": "owner",
          "type": "address"
        },
        {
          "internalType": "address",
          "name": "operator",
          "type": "address"
        }
      ],
      "name": "isApprovedForAll",
      "outputs": [
        {
          "internalType": "bool",
          "name": "",
          "type": "bool"
        }
      ],
      "payable": false,
      "stateMutability": "view",
      "type": "function"
    },
    {
      "constant": true,
      "inputs": [],
      "name": "name",
      "outputs": [
        {
          "internalType": "string",
          "name": "",
          "type": "string"
        }
      ],
      "payable": false,
      "stateMutability": "view",
      "type": "function"
    },
    {
      "constant": true,
      "inputs": [
        {
          "internalType": "uint256",
          "name": "tokenId",
          "type": "uint256"
        }
      ],
      "name": "ownerOf",
      "outputs": [
        {
          "internalType": "address",
          "name": "",
          "type": "address"
        }
      ],
      "payable": false,
      "stateMutability": "view",
      "type": "function"
    },
    {
      "constant": false,
      "inputs": [
        {
          "internalType": "address",
          "name": "_approve",
          "type": "address"
        }
      ],
      "name": "removeApproval",
      "outputs": [],
      "payable": false,
      "stateMutability": "nonpayable",
      "type": "function"
    },
    {
      "constant": false,
      "inputs": [
        {
          "internalType": "address",
          "name": "from",
          "type": "address"
        },
        {
          "internalType": "address",
          "name": "to",
          "type": "address"
        },
        {
          "internalType": "uint256",
          "name": "tokenId",
          "type": "uint256"
        }
      ],
      "name": "safeTransferFrom",
      "outputs": [],
      "payable": false,
      "stateMutability": "nonpayable",
      "type": "function"
    },
    {
      "constant": false,
      "inputs": [
        {
          "internalType": "address",
          "name": "from",
          "type": "address"
        },
        {
          "internalType": "address",
          "name": "to",
          "type": "address"
        },
        {
          "internalType": "uint256",
          "name": "tokenId",
          "type": "uint256"
        },
        {
          "internalType": "bytes",
          "name": "_data",
          "type": "bytes"
        }
      ],
      "name": "safeTransferFrom",
      "outputs": [],
      "payable": false,
      "stateMutability": "nonpayable",
      "type": "function"
    },
    {
      "constant": false,
      "inputs": [
        {
          "internalType": "address",
          "name": "to",
          "type": "address"
        },
        {
          "internalType": "bool",
          "name": "approved",
          "type": "bool"
        }
      ],
      "name": "setApprovalForAll",
      "outputs": [],
      "payable": false,
      "stateMutability": "nonpayable",
      "type": "function"
    },
    {
      "constant": true,
      "inputs": [
        {
          "internalType": "bytes4",
          "name": "interfaceId",
          "type": "bytes4"
        }
      ],
      "name": "supportsInterface",
      "outputs": [
        {
          "internalType": "bool",
          "name": "",
          "type": "bool"
        }
      ],
      "payable": false,
      "stateMutability": "view",
      "type": "function"
    },
    {
      "constant": true,
      "inputs": [],
      "name": "symbol",
      "outputs": [
        {
          "internalType": "string",
          "name": "",
          "type": "string"
        }
      ],
      "payable": false,
      "stateMutability": "view",
      "type": "function"
    },
    {
      "constant": true,
      "inputs": [],
      "name": "ticketContractOwner",
      "outputs": [
        {
          "internalType": "address",
          "name": "",
          "type": "address"
        }
      ],
      "payable": false,
      "stateMutability": "view",
      "type": "function"
    },
    {
      "constant": true,
      "inputs": [],
      "name": "ticketCount",
      "outputs": [
        {
          "internalType": "uint256",
          "name": "",
          "type": "uint256"
        }
      ],
      "payable": false,
      "stateMutability": "view",
      "type": "function"
    },
    {
      "constant": true,
      "inputs": [
        {
          "internalType": "uint256",
          "name": "",
          "type": "uint256"
        }
      ],
      "name": "tickets",
      "outputs": [
        {
          "internalType": "uint256",
          "name": "eventId",
          "type": "uint256"
        },
        {
          "internalType": "string",
          "name": "ticketDetail",
          "type": "string"
        },
        {
          "internalType": "uint256",
          "name": "ticketId",
          "type": "uint256"
        }
      ],
      "payable": false,
      "stateMutability": "view",
      "type": "function"
    },
    {
      "constant": true,
      "inputs": [
        {
          "internalType": "uint256",
          "name": "index",
          "type": "uint256"
        }
      ],
      "name": "tokenByIndex",
      "outputs": [
        {
          "internalType": "uint256",
          "name": "",
          "type": "uint256"
        }
      ],
      "payable": false,
      "stateMutability": "view",
      "type": "function"
    },
    {
      "constant": true,
      "inputs": [
        {
          "internalType": "address",
          "name": "owner",
          "type": "address"
        },
        {
          "internalType": "uint256",
          "name": "index",
          "type": "uint256"
        }
      ],
      "name": "tokenOfOwnerByIndex",
      "outputs": [
        {
          "internalType": "uint256",
          "name": "",
          "type": "uint256"
        }
      ],
      "payable": false,
      "stateMutability": "view",
      "type": "function"
    },
    {
      "constant": true,
      "inputs": [
        {
          "internalType": "uint256",
          "name": "tokenId",
          "type": "uint256"
        }
      ],
      "name": "tokenURI",
      "outputs": [
        {
          "internalType": "string",
          "name": "",
          "type": "string"
        }
      ],
      "payable": false,
      "stateMutability": "view",
      "type": "function"
    },
    {
      "constant": true,
      "inputs": [],
      "name": "totalSupply",
      "outputs": [
        {
          "internalType": "uint256",
          "name": "",
          "type": "uint256"
        }
      ],
      "payable": false,
      "stateMutability": "view",
      "type": "function"
    },
    {
      "constant": false,
      "inputs": [
        {
          "internalType": "address",
          "name": "from",
          "type": "address"
        },
        {
          "internalType": "address",
          "name": "to",
          "type": "address"
        },
        {
          "internalType": "uint256",
          "name": "tokenId",
          "type": "uint256"
        }
      ],
      "name": "transferFrom",
      "outputs": [],
      "payable": false,
      "stateMutability": "nonpayable",
      "type": "function"
    },
    {
      "constant": false,
      "inputs": [
        {
          "internalType": "string[]",
          "name": "_tickets",
          "type": "string[]"
        }
      ],
      "name": "mint",
      "outputs": [],
      "payable": false,
      "stateMutability": "nonpayable",
      "type": "function"
    },
    {
      "constant": false,
      "inputs": [
        {
          "internalType": "address",
          "name": "_from",
          "type": "address"
        },
        {
          "internalType": "address",
          "name": "_to",
          "type": "address"
        },
        {
          "internalType": "uint256[]",
          "name": "_tokenIds",
          "type": "uint256[]"
        }
      ],
      "name": "multiTransferFrom",
      "outputs": [],
      "payable": false,
      "stateMutability": "nonpayable",
      "type": "function"
    }
  ],
  "bytecode": "0x60806040526000600e556000600f5560006014553480156200002057600080fd5b506040518060400160405280600681526020017f5469636b657400000000000000000000000000000000000000000000000000008152506040518060400160405280600381526020017f54434b00000000000000000000000000000000000000000000000000000000008152508181620000a76301ffc9a760e01b620001ad60201b60201c565b620000bf6380ac58cd60e01b620001ad60201b60201c565b620000d763780e9d6360e01b620001ad60201b60201c565b8160099080519060200190620000ef92919062000285565b5080600a90805190602001906200010892919062000285565b5062000121635b5e139f60e01b620001ad60201b60201c565b5050505033601060006101000a81548173ffffffffffffffffffffffffffffffffffffffff021916908373ffffffffffffffffffffffffffffffffffffffff16021790555033601560006101000a81548173ffffffffffffffffffffffffffffffffffffffff021916908373ffffffffffffffffffffffffffffffffffffffff160217905550620003a9565b63ffffffff60e01b817bffffffffffffffffffffffffffffffffffffffffffffffffffffffff1916141562000219576040517f08c379a0000000000000000000000000000000000000000000000000000000008152600401620002109062000376565b60405180910390fd5b6001600080837bffffffffffffffffffffffffffffffffffffffffffffffffffffffff19167bffffffffffffffffffffffffffffffffffffffffffffffffffffffff1916815260200190815260200160002060006101000a81548160ff02191690831515021790555050565b828054600181600116156101000203166002900490600052602060002090601f016020900481019282601f10620002c857805160ff1916838001178555620002f9565b82800160010185558215620002f9579182015b82811115620002f8578251825591602001919060010190620002db565b5b5090506200030891906200030c565b5090565b6200033191905b808211156200032d57600081600090555060010162000313565b5090565b90565b600062000343601c8362000398565b91507f4552433136353a20696e76616c696420696e74657266616365206964000000006000830152602082019050919050565b60006020820190508181036000830152620003918162000334565b9050919050565b600082825260208201905092915050565b613a0080620003b96000396000f3fe608060405234801561001057600080fd5b50600436106102275760003560e01c8063652d472511610130578063b88d4fde116100b8578063d37f4acf1161007c578063d37f4acf146106b5578063e985e9c5146106e5578063f39346f314610715578063f487c60214610745578063fe210f691461076157610227565b8063b88d4fde14610611578063c13cf59a1461062d578063c87b56dd1461064b578063cb44211e1461067b578063cfbd900f1461069757610227565b80637cab5e8c116100ff5780637cab5e8c1461056d5780638a62462e1461058957806395d89b41146105a7578063a22cb465146105c5578063b4d59d27146105e157610227565b8063652d4725146104d35780636d1884e0146104ef57806370a082311461051f57806379a9e8eb1461054f57610227565b80632f745c59116101b35780634a17bbde116101825780634a17bbde146104075780634f6ccce71461042557806350b44712146104555780635768f271146104875780636352211e146104a357610227565b80632f745c591461036d578063323c635a1461039d578063331b2763146103bb57806342842e0e146103eb57610227565b8063095ea7b3116101fa578063095ea7b3146102c85780630b791430146102e457806318160ddd1461031557806319717d541461033357806323b872dd1461035157610227565b806301ffc9a71461022c57806306fdde031461025c578063081812fc1461027a578063089cdd0c146102aa575b600080fd5b61024660048036036102419190810190612b5d565b610791565b604051610253919061342a565b60405180910390f35b6102646107f8565b6040516102719190613445565b60405180910390f35b610294600480360361028f9190810190612baf565b61089a565b6040516102a19190613393565b60405180910390f35b6102b261091f565b6040516102bf91906136c7565b60405180910390f35b6102e260048036036102dd9190810190612ae0565b610925565b005b6102fe60048036036102f99190810190612baf565b610ad2565b60405161030c9291906133fa565b60405180910390f35b61031d610bae565b60405161032a91906136c7565b60405180910390f35b61033b610bbb565b60405161034891906136c7565b60405180910390f35b61036b60048036036103669190810190612986565b610bc1565b005b61038760048036036103829190810190612ae0565b610c1a565b60405161039491906136c7565b60405180910390f35b6103a5610cc3565b6040516103b291906136c7565b60405180910390f35b6103d560048036036103d091908101906128ba565b610ccd565b6040516103e2919061342a565b60405180910390f35b61040560048036036104009190810190612986565b610d23565b005b61040f610d43565b60405161041c91906136c7565b60405180910390f35b61043f600480360361043a9190810190612baf565b610d4d565b60405161044c91906136c7565b60405180910390f35b61046f600480360361046a9190810190612baf565b610db7565b60405161047e939291906136e2565b60405180910390f35b6104a1600480360361049c9190810190612b1c565b610e79565b005b6104bd60048036036104b89190810190612baf565b610f2b565b6040516104ca9190613393565b60405180910390f35b6104ed60048036036104e89190810190612a8c565b610fdd565b005b61050960048036036105049190810190612baf565b61112b565b6040516105169190613445565b60405180910390f35b610539600480360361053491908101906128ba565b6111e3565b60405161054691906136c7565b60405180910390f35b6105576112a2565b6040516105649190613393565b60405180910390f35b610587600480360361058291908101906128ba565b6112c8565b005b6105916113b3565b60405161059e9190613393565b60405180910390f35b6105af6113dd565b6040516105bc9190613445565b60405180910390f35b6105df60048036036105da9190810190612a50565b61147f565b005b6105fb60048036036105f69190810190612baf565b6115eb565b6040516106089190613393565b60405180910390f35b61062b600480360361062691908101906129d5565b61161e565b005b61063561167a565b6040516106429190613393565b60405180910390f35b61066560048036036106609190810190612baf565b6116a0565b6040516106729190613445565b60405180910390f35b610695600480360361069091908101906128ba565b61179d565b005b61069f611890565b6040516106ac91906136c7565b60405180910390f35b6106cf60048036036106ca91908101906128ba565b611896565b6040516106dc919061342a565b60405180910390f35b6106ff60048036036106fa91908101906128e3565b6118b6565b60405161070c919061342a565b60405180910390f35b61072f600480360361072a91908101906128ba565b61194a565b60405161073c91906136c7565b60405180910390f35b61075f600480360361075a919081019061291f565b611a2b565b005b61077b60048036036107769190810190612baf565b611a6b565b6040516107889190613393565b60405180910390f35b6000806000837bffffffffffffffffffffffffffffffffffffffffffffffffffffffff19167bffffffffffffffffffffffffffffffffffffffffffffffffffffffff1916815260200190815260200160002060009054906101000a900460ff169050919050565b606060098054600181600116156101000203166002900480601f0160208091040260200160405190810160405280929190818152602001828054600181600116156101000203166002900480156108905780601f1061086557610100808354040283529160200191610890565b820191906000526020600020905b81548152906001019060200180831161087357829003601f168201915b5050505050905090565b60006108a582611aa8565b6108e4576040517f08c379a00000000000000000000000000000000000000000000000000000000081526004016108db906135e7565b60405180910390fd5b6002600083815260200190815260200160002060009054906101000a900473ffffffffffffffffffffffffffffffffffffffff169050919050565b600e5481565b600061093082610f2b565b90508073ffffffffffffffffffffffffffffffffffffffff168373ffffffffffffffffffffffffffffffffffffffff1614156109a1576040517f08c379a000000000000000000000000000000000000000000000000000000000815260040161099890613647565b60405180910390fd5b8073ffffffffffffffffffffffffffffffffffffffff163373ffffffffffffffffffffffffffffffffffffffff1614806109e157506109e081336118b6565b5b610a20576040517f08c379a0000000000000000000000000000000000000000000000000000000008152600401610a1790613567565b60405180910390fd5b826002600084815260200190815260200160002060006101000a81548173ffffffffffffffffffffffffffffffffffffffff021916908373ffffffffffffffffffffffffffffffffffffffff160217905550818373ffffffffffffffffffffffffffffffffffffffff168273ffffffffffffffffffffffffffffffffffffffff167f8c5be1e5ebec7d5bd14f71427d1e84f3dd0314c0f7b2291e5b200ac8c7c3b92560405160405180910390a4505050565b600c6020528060005260406000206000915090508060000160009054906101000a900473ffffffffffffffffffffffffffffffffffffffff1690806001018054600181600116156101000203166002900480601f016020809104026020016040519081016040528092919081815260200182805460018160011615610100020316600290048015610ba45780601f10610b7957610100808354040283529160200191610ba4565b820191906000526020600020905b815481529060010190602001808311610b8757829003601f168201915b5050505050905082565b6000600780549050905090565b600f5481565b610bcb3382611b1a565b610c0a576040517f08c379a0000000000000000000000000000000000000000000000000000000008152600401610c0190613687565b60405180910390fd5b610c15838383611bf8565b505050565b6000610c25836111e3565b8210610c66576040517f08c379a0000000000000000000000000000000000000000000000000000000008152600401610c5d90613467565b60405180910390fd5b600560008473ffffffffffffffffffffffffffffffffffffffff1673ffffffffffffffffffffffffffffffffffffffff1681526020019081526020016000208281548110610cb057fe5b9060005260206000200154905092915050565b6000600f54905090565b6000600d60008373ffffffffffffffffffffffffffffffffffffffff1673ffffffffffffffffffffffffffffffffffffffff16815260200190815260200160002060009054906101000a900460ff169050919050565b610d3e8383836040518060200160405280600081525061161e565b505050565b6000600e54905090565b6000610d57610bae565b8210610d98576040517f08c379a0000000000000000000000000000000000000000000000000000000008152600401610d8f906136a7565b60405180910390fd5b60078281548110610da557fe5b90600052602060002001549050919050565b6013602052806000526040600020600091509050806000015490806001018054600181600116156101000203166002900480601f016020809104026020016040519081016040528092919081815260200182805460018160011615610100020316600290048015610e695780601f10610e3e57610100808354040283529160200191610e69565b820191906000526020600020905b815481529060010190602001808311610e4c57829003601f168201915b5050505050908060020154905083565b60008090505b8151811015610f2757610e9433601454611c1c565b60405180606001604052806001600e54038152602001838381518110610eb657fe5b60200260200101518152602001601454815250601360006014548152602001908152602001600020600082015181600001556020820151816001019080519060200190610f0492919061258d565b5060408201518160020155905050610f1a611c3d565b8080600101915050610e7f565b5050565b6000806001600084815260200190815260200160002060009054906101000a900473ffffffffffffffffffffffffffffffffffffffff169050600073ffffffffffffffffffffffffffffffffffffffff168173ffffffffffffffffffffffffffffffffffffffff161415610fd4576040517f08c379a0000000000000000000000000000000000000000000000000000000008152600401610fcb906135a7565b60405180910390fd5b80915050919050565b60405180604001604052808373ffffffffffffffffffffffffffffffffffffffff16815260200182815250600c6000600e54815260200190815260200160002060008201518160000160006101000a81548173ffffffffffffffffffffffffffffffffffffffff021916908373ffffffffffffffffffffffffffffffffffffffff160217905550602082015181600101908051906020019061108092919061258d565b509050508160116000600e54815260200190815260200160002060006101000a81548173ffffffffffffffffffffffffffffffffffffffff021916908373ffffffffffffffffffffffffffffffffffffffff16021790555061111f601260008473ffffffffffffffffffffffffffffffffffffffff1673ffffffffffffffffffffffffffffffffffffffff168152602001908152602001600020611c50565b611127611c66565b5050565b6060600c60008381526020019081526020016000206001018054600181600116156101000203166002900480601f0160208091040260200160405190810160405280929190818152602001828054600181600116156101000203166002900480156111d75780601f106111ac576101008083540402835291602001916111d7565b820191906000526020600020905b8154815290600101906020018083116111ba57829003601f168201915b50505050509050919050565b60008073ffffffffffffffffffffffffffffffffffffffff168273ffffffffffffffffffffffffffffffffffffffff161415611254576040517f08c379a000000000000000000000000000000000000000000000000000000000815260040161124b90613587565b60405180910390fd5b61129b600360008473ffffffffffffffffffffffffffffffffffffffff1673ffffffffffffffffffffffffffffffffffffffff168152602001908152602001600020611c79565b9050919050565b601560009054906101000a900473ffffffffffffffffffffffffffffffffffffffff1681565b3373ffffffffffffffffffffffffffffffffffffffff16601060009054906101000a900473ffffffffffffffffffffffffffffffffffffffff1673ffffffffffffffffffffffffffffffffffffffff1614611358576040517f08c379a000000000000000000000000000000000000000000000000000000000815260040161134f90613547565b60405180910390fd5b6000600d60008373ffffffffffffffffffffffffffffffffffffffff1673ffffffffffffffffffffffffffffffffffffffff16815260200190815260200160002060006101000a81548160ff02191690831515021790555050565b6000601060009054906101000a900473ffffffffffffffffffffffffffffffffffffffff16905090565b6060600a8054600181600116156101000203166002900480601f0160208091040260200160405190810160405280929190818152602001828054600181600116156101000203166002900480156114755780601f1061144a57610100808354040283529160200191611475565b820191906000526020600020905b81548152906001019060200180831161145857829003601f168201915b5050505050905090565b3373ffffffffffffffffffffffffffffffffffffffff168273ffffffffffffffffffffffffffffffffffffffff1614156114ee576040517f08c379a00000000000000000000000000000000000000000000000000000000081526004016114e5906134e7565b60405180910390fd5b80600460003373ffffffffffffffffffffffffffffffffffffffff1673ffffffffffffffffffffffffffffffffffffffff16815260200190815260200160002060008473ffffffffffffffffffffffffffffffffffffffff1673ffffffffffffffffffffffffffffffffffffffff16815260200190815260200160002060006101000a81548160ff0219169083151502179055508173ffffffffffffffffffffffffffffffffffffffff163373ffffffffffffffffffffffffffffffffffffffff167f17307eab39ab6107e8899845ad3d59bd9653f200f220920489ca2b5937696c31836040516115df919061342a565b60405180910390a35050565b60116020528060005260406000206000915054906101000a900473ffffffffffffffffffffffffffffffffffffffff1681565b611629848484610bc1565b61163584848484611c87565b611674576040517f08c379a000000000000000000000000000000000000000000000000000000000815260040161166b90613487565b60405180910390fd5b50505050565b601060009054906101000a900473ffffffffffffffffffffffffffffffffffffffff1681565b60606116ab82611aa8565b6116ea576040517f08c379a00000000000000000000000000000000000000000000000000000000081526004016116e190613627565b60405180910390fd5b600b60008381526020019081526020016000208054600181600116156101000203166002900480601f0160208091040260200160405190810160405280929190818152602001828054600181600116156101000203166002900480156117915780601f1061176657610100808354040283529160200191611791565b820191906000526020600020905b81548152906001019060200180831161177457829003601f168201915b50505050509050919050565b3373ffffffffffffffffffffffffffffffffffffffff16601060009054906101000a900473ffffffffffffffffffffffffffffffffffffffff1673ffffffffffffffffffffffffffffffffffffffff161461182d576040517f08c379a000000000000000000000000000000000000000000000000000000000815260040161182490613547565b60405180910390fd5b6001600d60008373ffffffffffffffffffffffffffffffffffffffff1673ffffffffffffffffffffffffffffffffffffffff16815260200190815260200160002060006101000a81548160ff02191690831515021790555061188d611d9e565b50565b60145481565b600d6020528060005260406000206000915054906101000a900460ff1681565b6000600460008473ffffffffffffffffffffffffffffffffffffffff1673ffffffffffffffffffffffffffffffffffffffff16815260200190815260200160002060008373ffffffffffffffffffffffffffffffffffffffff1673ffffffffffffffffffffffffffffffffffffffff16815260200190815260200160002060009054906101000a900460ff16905092915050565b60008073ffffffffffffffffffffffffffffffffffffffff16601060009054906101000a900473ffffffffffffffffffffffffffffffffffffffff1673ffffffffffffffffffffffffffffffffffffffff1614156119dd576040517f08c379a00000000000000000000000000000000000000000000000000000000081526004016119d490613667565b60405180910390fd5b611a24601260008473ffffffffffffffffffffffffffffffffffffffff1673ffffffffffffffffffffffffffffffffffffffff168152602001908152602001600020611c79565b9050919050565b60008090505b8151811015611a6557611a588484848481518110611a4b57fe5b6020026020010151610d23565b8080600101915050611a31565b50505050565b60006011600083815260200190815260200160002060009054906101000a900473ffffffffffffffffffffffffffffffffffffffff169050919050565b6000806001600084815260200190815260200160002060009054906101000a900473ffffffffffffffffffffffffffffffffffffffff169050600073ffffffffffffffffffffffffffffffffffffffff168173ffffffffffffffffffffffffffffffffffffffff161415915050919050565b6000611b2582611aa8565b611b64576040517f08c379a0000000000000000000000000000000000000000000000000000000008152600401611b5b90613527565b60405180910390fd5b6000611b6f83610f2b565b90508073ffffffffffffffffffffffffffffffffffffffff168473ffffffffffffffffffffffffffffffffffffffff161480611bde57508373ffffffffffffffffffffffffffffffffffffffff16611bc68461089a565b73ffffffffffffffffffffffffffffffffffffffff16145b80611bef5750611bee81856118b6565b5b91505092915050565b611c03838383611db1565b611c0d8382611fe0565b611c17828261217e565b505050565b611c268282612245565b611c30828261217e565b611c39816123f7565b5050565b6001601460008282540192505081905550565b6001816000016000828254019250508190555050565b6001600e60008282540192505081905550565b600081600001549050919050565b6000611ca88473ffffffffffffffffffffffffffffffffffffffff16612443565b611cb55760019050611d96565b60008473ffffffffffffffffffffffffffffffffffffffff1663150b7a02338887876040518563ffffffff1660e01b8152600401611cf694939291906133ae565b602060405180830381600087803b158015611d1057600080fd5b505af1158015611d24573d6000803e3d6000fd5b505050506040513d601f19601f82011682018060405250611d489190810190612b86565b905063150b7a0260e01b7bffffffffffffffffffffffffffffffffffffffffffffffffffffffff1916817bffffffffffffffffffffffffffffffffffffffffffffffffffffffff1916149150505b949350505050565b6001600f60008282540192505081905550565b8273ffffffffffffffffffffffffffffffffffffffff16611dd182610f2b565b73ffffffffffffffffffffffffffffffffffffffff1614611e27576040517f08c379a0000000000000000000000000000000000000000000000000000000008152600401611e1e90613607565b60405180910390fd5b600073ffffffffffffffffffffffffffffffffffffffff168273ffffffffffffffffffffffffffffffffffffffff161415611e97576040517f08c379a0000000000000000000000000000000000000000000000000000000008152600401611e8e906134c7565b60405180910390fd5b611ea081612456565b611ee7600360008573ffffffffffffffffffffffffffffffffffffffff1673ffffffffffffffffffffffffffffffffffffffff168152602001908152602001600020612514565b611f2e600360008473ffffffffffffffffffffffffffffffffffffffff1673ffffffffffffffffffffffffffffffffffffffff168152602001908152602001600020611c50565b816001600083815260200190815260200160002060006101000a81548173ffffffffffffffffffffffffffffffffffffffff021916908373ffffffffffffffffffffffffffffffffffffffff160217905550808273ffffffffffffffffffffffffffffffffffffffff168473ffffffffffffffffffffffffffffffffffffffff167fddf252ad1be2c89b69c2b068fc378daa952ba7f163c4a11628f55a4df523b3ef60405160405180910390a4505050565b60006120386001600560008673ffffffffffffffffffffffffffffffffffffffff1673ffffffffffffffffffffffffffffffffffffffff1681526020019081526020016000208054905061253790919063ffffffff16565b9050600060066000848152602001908152602001600020549050818114612125576000600560008673ffffffffffffffffffffffffffffffffffffffff1673ffffffffffffffffffffffffffffffffffffffff16815260200190815260200160002083815481106120a557fe5b9060005260206000200154905080600560008773ffffffffffffffffffffffffffffffffffffffff1673ffffffffffffffffffffffffffffffffffffffff16815260200190815260200160002083815481106120fd57fe5b9060005260206000200181905550816006600083815260200190815260200160002081905550505b600560008573ffffffffffffffffffffffffffffffffffffffff1673ffffffffffffffffffffffffffffffffffffffff168152602001908152602001600020805480919060019003612177919061260d565b5050505050565b600560008373ffffffffffffffffffffffffffffffffffffffff1673ffffffffffffffffffffffffffffffffffffffff168152602001908152602001600020805490506006600083815260200190815260200160002081905550600560008373ffffffffffffffffffffffffffffffffffffffff1673ffffffffffffffffffffffffffffffffffffffff1681526020019081526020016000208190806001815401808255809150509060018203906000526020600020016000909192909190915055505050565b600073ffffffffffffffffffffffffffffffffffffffff168273ffffffffffffffffffffffffffffffffffffffff1614156122b5576040517f08c379a00000000000000000000000000000000000000000000000000000000081526004016122ac906135c7565b60405180910390fd5b6122be81611aa8565b156122fe576040517f08c379a00000000000000000000000000000000000000000000000000000000081526004016122f5906134a7565b60405180910390fd5b816001600083815260200190815260200160002060006101000a81548173ffffffffffffffffffffffffffffffffffffffff021916908373ffffffffffffffffffffffffffffffffffffffff160217905550612397600360008473ffffffffffffffffffffffffffffffffffffffff1673ffffffffffffffffffffffffffffffffffffffff168152602001908152602001600020611c50565b808273ffffffffffffffffffffffffffffffffffffffff16600073ffffffffffffffffffffffffffffffffffffffff167fddf252ad1be2c89b69c2b068fc378daa952ba7f163c4a11628f55a4df523b3ef60405160405180910390a45050565b6007805490506008600083815260200190815260200160002081905550600781908060018154018082558091505090600182039060005260206000200160009091929091909150555050565b600080823b905060008111915050919050565b600073ffffffffffffffffffffffffffffffffffffffff166002600083815260200190815260200160002060009054906101000a900473ffffffffffffffffffffffffffffffffffffffff1673ffffffffffffffffffffffffffffffffffffffff16146125115760006002600083815260200190815260200160002060006101000a81548173ffffffffffffffffffffffffffffffffffffffff021916908373ffffffffffffffffffffffffffffffffffffffff1602179055505b50565b61252c6001826000015461253790919063ffffffff16565b816000018190555050565b60008282111561257c576040517f08c379a000000000000000000000000000000000000000000000000000000000815260040161257390613507565b60405180910390fd5b600082840390508091505092915050565b828054600181600116156101000203166002900490600052602060002090601f016020900481019282601f106125ce57805160ff19168380011785556125fc565b828001600101855582156125fc579182015b828111156125fb5782518255916020019190600101906125e0565b5b5090506126099190612639565b5090565b815481835581811115612634578183600052602060002091820191016126339190612639565b5b505050565b61265b91905b8082111561265757600081600090555060010161263f565b5090565b90565b60008135905061266d81613961565b92915050565b600082601f83011261268457600080fd5b81356126976126928261374d565b613720565b9150818183526020840193506020810190508360005b838110156126dd57813586016126c388826127fd565b8452602084019350602083019250506001810190506126ad565b5050505092915050565b600082601f8301126126f857600080fd5b813561270b61270682613775565b613720565b9150818183526020840193506020810190508385602084028201111561273057600080fd5b60005b83811015612760578161274688826128a5565b845260208401935060208301925050600181019050612733565b5050505092915050565b60008135905061277981613978565b92915050565b60008135905061278e8161398f565b92915050565b6000815190506127a38161398f565b92915050565b600082601f8301126127ba57600080fd5b81356127cd6127c88261379d565b613720565b915080825260208301602083018583830111156127e957600080fd5b6127f483828461390e565b50505092915050565b600082601f83011261280e57600080fd5b813561282161281c826137c9565b613720565b9150808252602083016020830185838301111561283d57600080fd5b61284883828461390e565b50505092915050565b600082601f83011261286257600080fd5b8135612875612870826137f5565b613720565b9150808252602083016020830185838301111561289157600080fd5b61289c83828461390e565b50505092915050565b6000813590506128b4816139a6565b92915050565b6000602082840312156128cc57600080fd5b60006128da8482850161265e565b91505092915050565b600080604083850312156128f657600080fd5b60006129048582860161265e565b92505060206129158582860161265e565b9150509250929050565b60008060006060848603121561293457600080fd5b60006129428682870161265e565b93505060206129538682870161265e565b925050604084013567ffffffffffffffff81111561297057600080fd5b61297c868287016126e7565b9150509250925092565b60008060006060848603121561299b57600080fd5b60006129a98682870161265e565b93505060206129ba8682870161265e565b92505060406129cb868287016128a5565b9150509250925092565b600080600080608085870312156129eb57600080fd5b60006129f98782880161265e565b9450506020612a0a8782880161265e565b9350506040612a1b878288016128a5565b925050606085013567ffffffffffffffff811115612a3857600080fd5b612a44878288016127a9565b91505092959194509250565b60008060408385031215612a6357600080fd5b6000612a718582860161265e565b9250506020612a828582860161276a565b9150509250929050565b60008060408385031215612a9f57600080fd5b6000612aad8582860161265e565b925050602083013567ffffffffffffffff811115612aca57600080fd5b612ad685828601612851565b9150509250929050565b60008060408385031215612af357600080fd5b6000612b018582860161265e565b9250506020612b12858286016128a5565b9150509250929050565b600060208284031215612b2e57600080fd5b600082013567ffffffffffffffff811115612b4857600080fd5b612b5484828501612673565b91505092915050565b600060208284031215612b6f57600080fd5b6000612b7d8482850161277f565b91505092915050565b600060208284031215612b9857600080fd5b6000612ba684828501612794565b91505092915050565b600060208284031215612bc157600080fd5b6000612bcf848285016128a5565b91505092915050565b612be1816138d8565b82525050565b612bf081613864565b82525050565b612bff81613876565b82525050565b6000612c1082613821565b612c1a8185613842565b9350612c2a81856020860161391d565b612c3381613950565b840191505092915050565b6000612c4982613837565b612c538185613853565b9350612c6381856020860161391d565b612c6c81613950565b840191505092915050565b6000612c828261382c565b612c8c8185613853565b9350612c9c81856020860161391d565b612ca581613950565b840191505092915050565b6000612cbd602b83613853565b91507f455243373231456e756d657261626c653a206f776e657220696e646578206f7560008301527f74206f6620626f756e64730000000000000000000000000000000000000000006020830152604082019050919050565b6000612d23603283613853565b91507f4552433732313a207472616e7366657220746f206e6f6e20455243373231526560008301527f63656976657220696d706c656d656e74657200000000000000000000000000006020830152604082019050919050565b6000612d89601c83613853565b91507f4552433732313a20746f6b656e20616c7265616479206d696e746564000000006000830152602082019050919050565b6000612dc9602483613853565b91507f4552433732313a207472616e7366657220746f20746865207a65726f2061646460008301527f72657373000000000000000000000000000000000000000000000000000000006020830152604082019050919050565b6000612e2f601983613853565b91507f4552433732313a20617070726f766520746f2063616c6c6572000000000000006000830152602082019050919050565b6000612e6f601e83613853565b91507f536166654d6174683a207375627472616374696f6e206f766572666c6f7700006000830152602082019050919050565b6000612eaf602c83613853565b91507f4552433732313a206f70657261746f7220717565727920666f72206e6f6e657860008301527f697374656e7420746f6b656e00000000000000000000000000000000000000006020830152604082019050919050565b6000612f15601583613853565b91507f73656e646572206973206e6f742061206f776e657200000000000000000000006000830152602082019050919050565b6000612f55603883613853565b91507f4552433732313a20617070726f76652063616c6c6572206973206e6f74206f7760008301527f6e6572206e6f7220617070726f76656420666f7220616c6c00000000000000006020830152604082019050919050565b6000612fbb602a83613853565b91507f4552433732313a2062616c616e636520717565727920666f7220746865207a6560008301527f726f2061646472657373000000000000000000000000000000000000000000006020830152604082019050919050565b6000613021602983613853565b91507f4552433732313a206f776e657220717565727920666f72206e6f6e657869737460008301527f656e7420746f6b656e00000000000000000000000000000000000000000000006020830152604082019050919050565b6000613087602083613853565b91507f4552433732313a206d696e7420746f20746865207a65726f20616464726573736000830152602082019050919050565b60006130c7602c83613853565b91507f4552433732313a20617070726f76656420717565727920666f72206e6f6e657860008301527f697374656e7420746f6b656e00000000000000000000000000000000000000006020830152604082019050919050565b600061312d602983613853565b91507f4552433732313a207472616e73666572206f6620746f6b656e2074686174206960008301527f73206e6f74206f776e00000000000000000000000000000000000000000000006020830152604082019050919050565b6000613193602f83613853565b91507f4552433732314d657461646174613a2055524920717565727920666f72206e6f60008301527f6e6578697374656e7420746f6b656e00000000000000000000000000000000006020830152604082019050919050565b60006131f9602183613853565b91507f4552433732313a20617070726f76616c20746f2063757272656e74206f776e6560008301527f72000000000000000000000000000000000000000000000000000000000000006020830152604082019050919050565b600061325f602983613853565b91507f4576656e743a2062616c616e636520717565727920666f7220746865207a657260008301527f6f206164647265737300000000000000000000000000000000000000000000006020830152604082019050919050565b60006132c5603183613853565b91507f4552433732313a207472616e736665722063616c6c6572206973206e6f74206f60008301527f776e6572206e6f7220617070726f7665640000000000000000000000000000006020830152604082019050919050565b600061332b602c83613853565b91507f455243373231456e756d657261626c653a20676c6f62616c20696e646578206f60008301527f7574206f6620626f756e647300000000000000000000000000000000000000006020830152604082019050919050565b61338d816138ce565b82525050565b60006020820190506133a86000830184612be7565b92915050565b60006080820190506133c36000830187612bd8565b6133d06020830186612be7565b6133dd6040830185613384565b81810360608301526133ef8184612c05565b905095945050505050565b600060408201905061340f6000830185612be7565b81810360208301526134218184612c77565b90509392505050565b600060208201905061343f6000830184612bf6565b92915050565b6000602082019050818103600083015261345f8184612c3e565b905092915050565b6000602082019050818103600083015261348081612cb0565b9050919050565b600060208201905081810360008301526134a081612d16565b9050919050565b600060208201905081810360008301526134c081612d7c565b9050919050565b600060208201905081810360008301526134e081612dbc565b9050919050565b6000602082019050818103600083015261350081612e22565b9050919050565b6000602082019050818103600083015261352081612e62565b9050919050565b6000602082019050818103600083015261354081612ea2565b9050919050565b6000602082019050818103600083015261356081612f08565b9050919050565b6000602082019050818103600083015261358081612f48565b9050919050565b600060208201905081810360008301526135a081612fae565b9050919050565b600060208201905081810360008301526135c081613014565b9050919050565b600060208201905081810360008301526135e08161307a565b9050919050565b60006020820190508181036000830152613600816130ba565b9050919050565b6000602082019050818103600083015261362081613120565b9050919050565b6000602082019050818103600083015261364081613186565b9050919050565b60006020820190508181036000830152613660816131ec565b9050919050565b6000602082019050818103600083015261368081613252565b9050919050565b600060208201905081810360008301526136a0816132b8565b9050919050565b600060208201905081810360008301526136c08161331e565b9050919050565b60006020820190506136dc6000830184613384565b92915050565b60006060820190506136f76000830186613384565b81810360208301526137098185612c77565b90506137186040830184613384565b949350505050565b6000604051905081810181811067ffffffffffffffff8211171561374357600080fd5b8060405250919050565b600067ffffffffffffffff82111561376457600080fd5b602082029050602081019050919050565b600067ffffffffffffffff82111561378c57600080fd5b602082029050602081019050919050565b600067ffffffffffffffff8211156137b457600080fd5b601f19601f8301169050602081019050919050565b600067ffffffffffffffff8211156137e057600080fd5b601f19601f8301169050602081019050919050565b600067ffffffffffffffff82111561380c57600080fd5b601f19601f8301169050602081019050919050565b600081519050919050565b600081519050919050565b600081519050919050565b600082825260208201905092915050565b600082825260208201905092915050565b600061386f826138ae565b9050919050565b60008115159050919050565b60007fffffffff0000000000000000000000000000000000000000000000000000000082169050919050565b600073ffffffffffffffffffffffffffffffffffffffff82169050919050565b6000819050919050565b60006138e3826138ea565b9050919050565b60006138f5826138fc565b9050919050565b6000613907826138ae565b9050919050565b82818337600083830152505050565b60005b8381101561393b578082015181840152602081019050613920565b8381111561394a576000848401525b50505050565b6000601f19601f8301169050919050565b61396a81613864565b811461397557600080fd5b50565b61398181613876565b811461398c57600080fd5b50565b61399881613882565b81146139a357600080fd5b50565b6139af816138ce565b81146139ba57600080fd5b5056fea365627a7a72315820f3d24a086b5c0f984858ba1a49d4c986a02d0ad77efb8babad5a60e6816bd5436c6578706572696d656e74616cf564736f6c63430005100040",
  "source": "pragma solidity ^0.5.16;\r\npragma experimental ABIEncoderV2;\r\n\r\nimport \"./ERC721Full.sol\";\r\nimport \"./Event.sol\";\r\n\r\ncontract Ticket is ERC721Full, Event {\r\n  mapping(uint256 => Ticket) public tickets;\r\n  // mapping(string => bool) _ticketExists;\r\n  uint256 public ticketCount = 0;\r\n  address public ticketContractOwner;\r\n\r\n  constructor() ERC721Full(\"Ticket\", \"TCK\") public {\r\n    ticketContractOwner = msg.sender;\r\n  }\r\n\r\n  struct Ticket {\r\n    uint256 eventId;\r\n    string ticketDetail;\r\n    uint256 ticketId;\r\n  }\r\n\r\n  function incrementCount() internal {\r\n    ticketCount += 1;\r\n  }\r\n\r\n\r\n  function mint(string[] memory _tickets) public {\r\n    for(uint index = 0; index < _tickets.length; index++) {\r\n      _mint(msg.sender, ticketCount);\r\n      tickets[ticketCount] = Ticket(eventId - 1, _tickets[index], ticketCount);\r\n      incrementCount();\r\n    }\r\n    // require(!_ticketExists[_ticket]);\r\n\r\n    // _ticketExists[_ticket] = true;\r\n  }\r\n  \r\n  function multiTransferFrom(address _from, address _to, uint256[] memory _tokenIds) public {\r\n    for(uint index = 0; index < _tokenIds.length; index++) {\r\n      safeTransferFrom(_from, _to, _tokenIds[index]);\r\n    }\r\n  }\r\n\r\n}\r\n",
  "sourcePath": "C:/Users/Tim-CH/Desktop/smart-ticket-app/src/contracts/Ticket.sol",
  "compiler": {
    "name": "solc",
    "version": "0.5.16+commit.9c3226ce.Emscripten.clang"
  },
  "schemaVersion": "3.3.3",
  "updatedAt": "2021-01-03T16:56:18.538Z",
  "networkType": "ethereum",
  "devdoc": {
    "methods": {
      "approve(address,uint256)": {
        "details": "Approves another address to transfer the given token ID The zero address indicates there is no approved address. There can only be one approved address per token at a given time. Can only be called by the token owner or an approved operator.",
        "params": {
          "to": "address to be approved for the given token ID",
          "tokenId": "uint256 ID of the token to be approved"
        }
      },
      "balanceOf(address)": {
        "details": "Gets the balance of the specified address.",
        "params": {
          "owner": "address to query the balance of"
        },
        "return": "uint256 representing the amount owned by the passed address"
      },
      "getApproved(uint256)": {
        "details": "Gets the approved address for a token ID, or zero if no address set Reverts if the token ID does not exist.",
        "params": {
          "tokenId": "uint256 ID of the token to query the approval of"
        },
        "return": "address currently approved for the given token ID"
      },
      "isApprovedForAll(address,address)": {
        "details": "Tells whether an operator is approved by a given owner.",
        "params": {
          "operator": "operator address which you want to query the approval of",
          "owner": "owner address which you want to query the approval of"
        },
        "return": "bool whether the given operator is approved by the given owner"
      },
      "name()": {
        "details": "Gets the token name.",
        "return": "string representing the token name"
      },
      "ownerOf(uint256)": {
        "details": "Gets the owner of the specified token ID.",
        "params": {
          "tokenId": "uint256 ID of the token to query the owner of"
        },
        "return": "address currently marked as the owner of the given token ID"
      },
      "safeTransferFrom(address,address,uint256)": {
        "details": "Safely transfers the ownership of a given token ID to another address If the target address is a contract, it must implement `onERC721Received`, which is called upon a safe transfer, and return the magic value `bytes4(keccak256(\"onERC721Received(address,address,uint256,bytes)\"))`; otherwise, the transfer is reverted. Requires the msg.sender to be the owner, approved, or operator",
        "params": {
          "from": "current owner of the token",
          "to": "address to receive the ownership of the given token ID",
          "tokenId": "uint256 ID of the token to be transferred"
        }
      },
      "safeTransferFrom(address,address,uint256,bytes)": {
        "details": "Safely transfers the ownership of a given token ID to another address If the target address is a contract, it must implement `onERC721Received`, which is called upon a safe transfer, and return the magic value `bytes4(keccak256(\"onERC721Received(address,address,uint256,bytes)\"))`; otherwise, the transfer is reverted. Requires the msg.sender to be the owner, approved, or operator",
        "params": {
          "_data": "bytes data to send along with a safe transfer check",
          "from": "current owner of the token",
          "to": "address to receive the ownership of the given token ID",
          "tokenId": "uint256 ID of the token to be transferred"
        }
      },
      "setApprovalForAll(address,bool)": {
        "details": "Sets or unsets the approval of a given operator An operator is allowed to transfer all tokens of the sender on their behalf.",
        "params": {
          "approved": "representing the status of the approval to be set",
          "to": "operator address to set the approval"
        }
      },
      "supportsInterface(bytes4)": {
        "details": "See `IERC165.supportsInterface`.      * Time complexity O(1), guaranteed to always use less than 30 000 gas."
      },
      "symbol()": {
        "details": "Gets the token symbol.",
        "return": "string representing the token symbol"
      },
      "tokenByIndex(uint256)": {
        "details": "Gets the token ID at a given index of all the tokens in this contract Reverts if the index is greater or equal to the total number of tokens.",
        "params": {
          "index": "uint256 representing the index to be accessed of the tokens list"
        },
        "return": "uint256 token ID at the given index of the tokens list"
      },
      "tokenOfOwnerByIndex(address,uint256)": {
        "details": "Gets the token ID at a given index of the tokens list of the requested owner.",
        "params": {
          "index": "uint256 representing the index to be accessed of the requested tokens list",
          "owner": "address owning the tokens list to be accessed"
        },
        "return": "uint256 token ID at the given index of the tokens list owned by the requested address"
      },
      "tokenURI(uint256)": {
        "details": "Returns an URI for a given token ID. Throws if the token ID does not exist. May return an empty string.",
        "params": {
          "tokenId": "uint256 ID of the token to query"
        }
      },
      "totalSupply()": {
        "details": "Gets the total amount of tokens stored by the contract.",
        "return": "uint256 representing the total amount of tokens"
      },
      "transferFrom(address,address,uint256)": {
        "details": "Transfers the ownership of a given token ID to another address. Usage of this method is discouraged, use `safeTransferFrom` whenever possible. Requires the msg.sender to be the owner, approved, or operator.",
        "params": {
          "from": "current owner of the token",
          "to": "address to receive the ownership of the given token ID",
          "tokenId": "uint256 ID of the token to be transferred"
        }
      }
    }
  },
  "userdoc": {
    "methods": {}
  }
}